:020000023000CC
:10E000000D9489F10D94B2F10D94B2F10D94B2F129
:10E010000D94B2F10D94B2F10D94B2F10D94B2F1F0
:10E020000D94B2F10D94B2F10D94B2F10D94B2F1E0
:10E030000D94B2F10D94B2F10D94B2F10D94B2F1D0
:10E040000D94B2F10D94B2F10D94B2F10D94B2F1C0
:10E050000D94B2F10D94B2F10D94B2F10D94B2F1B0
:10E060000D94B2F10D94B2F10D94B2F10D94B2F1A0
:10E070000D94B2F10D94B2F10D94B2F10D94B2F190
:10E080000D94B2F10D94B2F10D94B2F10D94B2F180
:10E090000D94B2F10D94B2F10D94B2F10D94B2F170
:10E0A0000D94B2F10D94B2F10D94B2F10D94B2F160
:10E0B0000D94B2F10D94B2F10D94B2F10D94B2F150
:10E0C0000D94B2F10D94B2F10D94B2F10D94B2F140
:10E0D0000D94B2F10D94B2F10D94B2F10D94B2F130
:10E0E0000D94B2F12A00593D506F727420626C6930
:10E0F0006E6B00563D73686F7720696E746572723F
:10E1000075707420566563746F727300523D447568
:10E110006D702052414D00513D51756974004C3D68
:10E120004C69737420492F4F20506F7274730048EC
:10E130003D48656C7000463D44756D7020464C410D
:10E14000534800453D44756D7020454550524F4D34
:10E1500000423D426C696E6B204C454400403D4599
:10E160004550524F4D2074657374003F3D435055E8
:10E1700020737461747300303D5A65726F2061645E
:10E18000647200504F5254004545206572722063FE
:10E190006E743D0052656164696E672045450057A5
:10E1A00072697474696E672045450020004D75736F
:10E1B000742062652061206C657474657200506F14
:10E1C0007274206E6F7420737570706F72746564F2
:10E1D000005768617420706F72743A006A6D702025
:10E1E00000726A6D702020006E6F20766563746F18
:10E1F00072005623202020414444522020206F707A
:10E2000020636F64652020202020696E737472750E
:10E210006374696F6E2061646472202020496E749B
:10E2200065727275707400392E332E3000322E30C4
:10E230002E30005365702031342032303231004CA2
:10E240006F636B20667573652020203D2000457844
:10E25000742066757365202020203D200048696782
:10E260006820667573652020203D20004C6F772064
:10E2700066757365202020203D20004350552049BD
:10E28000442020202020203D200047434320566585
:10E290007273696F6E203D2000415652204C6962B6
:10E2A00043205665723D20005F5F4156525F4152E8
:10E2B00043485F5F3D2000435055205479706520EE
:10E2C0002020203D2000436F6D70696C6564206FD5
:10E2D0006E203D20004875683F00426F6F746C6F80
:10E2E000616465723E0041726475696E6F20657885
:10E2F000706C6F7265722073746B353030563220DB
:10E300006279204D4C530041546D6567613235365A
:10E31000300011241FBECFEFD1E2DEBFCDBF01E040
:10E320000CBF12E0A0E0B2E0E2E7F7EF03E00BBFC2
:10E3300002C007900D92A430B107D9F722E0A4E003
:10E34000B2E001C01D92A231B207E1F70F94ECF2E6
:10E350000D94B7FB01E20EBF0FEF0DBF11241FBEDE
:10E360000D94ECF20D9400F08093C6008091C000F3
:10E3700086FFFCCF8091C00080648093C000089528
:10E380008091C00087FFFCCF8091C60008959C015A
:10E3900090E080E08217930709F40895EFECF7E02E
:10E3A0003197F1F700C000000196F4CFCF93DF93CF
:10E3B000EC01C60FD11DCE01B0E0A0E0ABBFFC0167
:10E3C0008791882321F021960F94B4F1F4CFDF9147
:10E3D000CF9108958DE00F94B4F18AE00D94B4F1DB
:10E3E000CF93C82F60E083E891EE0F94D6F18C2F85
:10E3F0000F94B4F1CF910D94EAF10F94D6F10D94EE
:10E40000EAF1CF93DF93EC018991882319F00F94FF
:10E41000B4F1FACFDF91CF910895CF93C82F982F01
:10E4200092959F7080E3890F8A3310F087E3890FFC
:10E430000F94B4F1CF7080E38C0F8A3310F087E330
:10E440008C0FCF910D94B4F12F923F924F925F9227
:10E450006F927F928F929F92AF92BF92CF92DF92F4
:10E46000EF92FF920F931F93CF93DF93CDB7DEB759
:10E4700062970FB6F894DEBF0FBECDBF982E6A012B
:10E480007B0180E1882E81E0C816D104E806F10402
:10E4900018F08E2D0F940DF28D2D0F940DF20C2D82
:10E4A0008C2D0F940DF280E20F94B4F18DE20F9455
:10E4B000B4F180E20F94B4F11982FE0131965F014C
:10E4C000260137011F01005FF1E09F1609F444C0E7
:10E4D00082E0981609F445C06BBEF2011791812FB6
:10E4E0000F940DF280E20F94B4F180EE810F8F351E
:10E4F000D8F5F50110839FEF491A590A690A790A7C
:10E50000EFEFAE1ABE0A0411DFCFF0E1CF0ED11C3F
:10E51000E11CF11C198AC1010F9401F20F94EAF178
:10E520008A948110B0CF62960FB6F894DEBF0FBE0A
:10E53000CDBFDF91CF911F910F91FF90EF90DF90B2
:10E54000CF90BF90AF909F908F907F906F905F9093
:10E550004F903F902F900895C2010F94A1FB182F68
:10E56000BECFF2011081BBCF8EE2F5018083C3CF15
:10E570000F931F93CF93DF93EC018B0185369105A9
:10E580001CF4633071054CF0CE0164E670E00F942A
:10E5900072FB80E3860F0F94B4F1CB30D1051CF4ED
:10E5A000023011056CF0CE0164E670E00F9472FB4E
:10E5B0006AE070E00F9472FB80E3860F0F94B4F171
:10E5C000CE016AE070E00F9472FB805DDF91CF9125
:10E5D0001F910F910D94B4F1CDB7DEB7C853D14060
:10E5E0000FB6F894DEBF0FBECDBF01E20EBF0FEF36
:10E5F0000DBF94B7F894A89514BE8091600088610F
:10E600008093600010926000789493FD02C01F9B7D
:10E6100005C0E0910402F091050219958091C000B7
:10E6200082608093C00080E18093C40088E1809381
:10E63000C100000090E080E040E050E0BA0120918D
:10E64000C00027FD25C0892B71F000008091C0001B
:10E650008D7F8093C00081E180935700E895EE277D
:10E66000FF270994FFCF25E02A95F1F700004F5FBF
:10E670005F4F6F4F7F4F31E020E0413281EA580712
:10E6800087E06807710508F430E0832F922FD7CF19
:10E69000892BD9F6C35DDE4F19821882CD52D14045
:10E6A000312C212CCC5DDE4F19821882C452D1400E
:10E6B000CA5DDE4F188219821A821B82C652D1406F
:10E6C000412C512C320141E050E0C65DDE4F1882F2
:10E6D000CA52D140D12CFE013B96C25EDE4FF98377
:10E6E000E883CE51D14030E020E080E02BC541509E
:10E6F00051096109710971F46BBFFA014791569193
:10E700004F3F5F4F19F0EE27FF27099441E052E198
:10E710006AE770E09091C00097FFE9CF17C5123407
:10E7200009F4CDC1153409F07DC562E083E491EEB2
:10E730000F94FDF14091060250910702609108028A
:10E740007091090281E00F9424F280910602909169
:10E750000702A0910802B09109029F5FAF4FBF4F1F
:10E760008115E0E19E07A105B10508F0A0C08093E6
:10E77000060290930702A0930802B09309022FC5E6
:10E78000123509F41EC208F04BC01C3409F4D4C180
:10E79000113509F4F8C1183409F044C562E08FE27C
:10E7A00091EE0F94FDF160E087E791EE0F94FDF19B
:10E7B00060E08BE691EE0F94FDF160E08DE591EE67
:10E7C0000F94FDF160E081E591EE0F94FDF160E0C2
:10E7D00083E491EE0F94FDF160E086E391EE0F94F7
:10E7E000FDF160E08FE291EE0F94FDF160E08EE1CB
:10E7F00091EE0F94FDF160E087E191EE0F94FDF151
:10E8000060E08CE091EE0F94FDF160E083EF90EE1C
:10E810000F94FDF160E086EE90EE0F94FDF1DFC401
:10E82000163509F4F2C1193509F0FCC462E086EE30
:10E8300090EE0F94FDF160E081ED91EE0F94D6F132
:10E840000F94C0F1182F1F75812F0F94B4F10F94FE
:10E85000EAF18FEB810F8A3108F05EC4163409F4B7
:10E8600003C408F09BC3133409F4D8C308F089C368
:10E87000113409F4B5C3123409F4C1C360E08EEB5E
:10E8800091EECBCF62E087E791EE0F94FDF110920D
:10E890000A0210920B0210920C0210920D021092BA
:10E8A0000E0210920F02109210021092110210929A
:10E8B00006021092070210920802109209028FC4F9
:10E8C00062E08BE691EE0F94FDF160E086EE92EE51
:10E8D0000F94FDF160E086EC92EE0F94D6F160E0CB
:10E8E00083E392EE0F94FDF160E087EB92EE0F94DC
:10E8F000D6F160E087E093EE0F94FDF160E088EAE6
:10E9000092EE0F94D6F186E30F94B4F10F94EAF1EE
:10E9100060E08AE892EE0F94D6F160E087E292EE32
:10E920000F94FDF160E089E992EE0F94D6F160E07A
:10E930008DE292EE0F94FDF160E08BE792EE0F9482
:10E94000D6F18EE10F940DF288E90F940DF281E07B
:10E950000F940DF20F94EAF160E08CE692EE0F94C2
:10E96000D6F129E0F0E0E0E02093570084910F9485
:10E970000DF20F94EAF160E08DE592EE0F94D6F17E
:10E9800029E0E3E0F0E02093570084910F940DF22A
:10E990000F94EAF160E08EE492EE0F94D6F1E2E09B
:10E9A000F0E039E03093570084910F940DF20F940A
:10E9B000EAF160E08FE392EE0F94D6F1E1E0F0E04F
:10E9C00049E04093570084910F940DF20F94EAF1BF
:10E9D00006C462E08DE591EE0F94FDF160E08FE9F1
:10E9E00091EE0F94FDF10F94EAF1F12CE12CC701A7
:10E9F0008A519D41B0E0A0E0ABBFFC0117911A32F3
:10EA000021F0E11462E0F60681F50F94EAF10F942B
:10EA1000EAF160E084E991EE0F94FDF10F94EAF1E0
:10EA2000D12CC12CF12CE12CC7018A519D41B0E0C1
:10EA3000A0E0ABBFFC0117911A3221F0E11492E083
:10EA4000F90631F50F94EAF10F94EAF160E088E8F5
:10EA500091EE0F94D6F161E070E0C6010F94B8F228
:10EA60000F94EAF10F94EAF122CF612FC7010F94BE
:10EA7000A9FB111109C060E08BEA91EE0F94D6F169
:10EA80005FEFE51AF50AB3CF812F0F94B4F1F8CFF9
:10EA9000C7010F94A1FBB82E81110EC060E08BEA74
:10EAA00091EE0F94D6F1B11619F07FEFC71AD70A7D
:10EAB0008FEFE81AF80AB8CF0F94B4F1F4CF62E000
:10EAC00081E591EE0F94FDF1279A2F9A8091C00075
:10EAD00087FF03C00F94C0F182C32F9884E690E0B3
:10EAE0000F94C7F12F9A84E690E00F94C7F1EECF10
:10EAF00062E086E391EE0F94FDF140910A0250919D
:10EB00000B0260910C0270910D0280E00F9424F2D0
:10EB100080910A0290910B02A0910C02B0910D021B
:10EB20009F5FAF4FBF4F80930A0290930B02A09359
:10EB30000C02B0930D0253C362E08EE191EE0F948C
:10EB4000FDF181E40F94F0F182E40F94F0F183E49D
:10EB50000F94F0F184E40F94F0F185E40F94F0F158
:10EB600086E40F94F0F187E40F94F0F188E40F94B9
:10EB7000F0F18AE40F94F0F18BE40F94F0F18CE45F
:10EB80000F94F0F12CC362E087E191EE0F94FDF158
:10EB9000992493942981243109F445C508F0AEC322
:10EBA000263009F4E8C408F099C3223009F4A2C35E
:10EBB000233009F495C4213009F47CC480EC8A83A5
:10EBC0009AC362E08CE091EE0F94FDF140910E0249
:10EBD00050910F02609110027091110282E00F9427
:10EBE00024F280910E0290910F02A0911002B09138
:10EBF00011029F5FAF4FBF4F80930E0290930F02A1
:10EC0000A0931002B0931102EAC262E083EF90EE8B
:10EC10000F94FDF160E087E093EE0F94FDF160E06A
:10EC200082EF91EE0F94FDF1C55DDE4F19821882DF
:10EC3000CB52D140C05EDE4F188219821A821B82ED
:10EC4000C052D140C05EDE4F288139814A815B814C
:10EC5000C052D1405695479537952795C15DDE4FF7
:10EC6000288339834A835B83CF52D140C55DDE4F11
:10EC700048815981CB52D1404F5F5F4FC55DDE4F18
:10EC800059834883CB52D14062E070E0CA010F94AF
:10EC9000B8F280E20F94B4F18DE20F94B4F180E207
:10ECA0000F94B4F180E00F940DF2C15DDE4F8881C6
:10ECB000CF52D1400F940DF280E20F94B4F18DE366
:10ECC0000F94B4F180E20F94B4F1C05EDE4F68811E
:10ECD00079818A819B81C052D1408BBFFB017791A2
:10ECE000C95CDE4F7883C753D140872E912CB12C5D
:10ECF000A12CC05EDE4F88819981AA81BB81C05260
:10ED0000D1400196A11DB11DABBFFC018791282FF9
:10ED100030E050E040E0CD5CDE4F288339834A8309
:10ED20005B83C353D140C05EDE4F488159816A8105
:10ED30007B81C052D1404E5F5F4F6F4F7F4F6BBFA3
:10ED4000FA013791C85CDE4F3883C853D140C05EAA
:10ED5000DE4F488159816A817B81C052D1404D5F2D
:10ED60005F4F6F4F7F4F6BBFFA011791C05EDE4F51
:10ED7000488159816A817B81C052D1404C5F5F4F8D
:10ED80006F4F7F4FC05EDE4F488359836A837B831A
:10ED9000C052D140CD5CDE4F288139814A815B81F0
:10EDA000C353D140CC24D22EE32EF42EC80CD91C50
:10EDB000EA1CFB1C0F940DF280E20F94B4F1C95CC5
:10EDC000DE4F8881C753D1400F940DF280E20F943B
:10EDD000B4F1812F0F940DF280E20F94B4F1C85C6E
:10EDE000DE4F8881C853D1400F940DF280E20F941A
:10EDF000B4F13FEFC316D306E104F10491F460E0EF
:10EE000088EE91EE0F94D6F10F94EAF1C55DDE4FD6
:10EE100028813981CB52D1402933310509F012CFF5
:10EE2000DEC1D701C6018827907CAA27BB278115A0
:10EE3000904CA105B10579F55FE3D522EE24FF24BE
:10EE4000C15DDE4F88809980AA80BB80CF52D140BF
:10EE50008C0C9D1CAE1CBF1C880C991CAA1CBB1CD6
:10EE600060E081EE91EE0F94D6F18D2D0F940DF2AE
:10EE70008C2D0F940DF280E20F94B4F18EE30F9479
:10EE8000B4F180E00F940DF2892D0F940DF2882DCE
:10EE90000F940DF2B9CF6EE0C622E894D0F8EE24BC
:10EEA000FF247CE0C71674E9D706E104F10409F0F9
:10EEB000ABCF812F90E0B0E0A0E0BA2FA92F982F20
:10EEC0008827C85CDE4FE881C853D1408E0F911D62
:10EED000A11DB11DCD5CDE4F488159816A817B81C6
:10EEE000C353D140E5E1440F551F661F771FEA95D4
:10EEF000D1F74427552760727727480F591F6A1F9B
:10EF00007B1FD4019927882788279927A170BB27C1
:10EF100011E1880C991CAA1CBB1C1A95D1F78824F6
:10EF20009924F0EEAF22F1E0BF2288299929AA297D
:10EF3000BB294A015B01880E991EAA1EBB1E7501E2
:10EF40006401CC0CDD1CEE1CFF1C60E08CED91EE2E
:10EF50000F94D6F18A2D0F940DF2892D0F940DF296
:10EF6000882D0F940DF280E20F94B4F18EE30F948C
:10EF7000B4F18E2D0F940DF28D2D0F940DF28C2D7A
:10EF800087CF143409F459C0153409F077CC0DB982
:10EF90008091C00087FF60C01EB89CCD1A3409F470
:10EFA0008BC078F4173409F46EC0183409F066CCBD
:10EFB000009301018091C00087FF74C0109202018C
:10EFC00089CD1B3409F48BC01C3409F057CC009355
:10EFD0000A018091C00087FF95C010920B017ACD85
:10EFE00001B98091C00087FF02C012B873CD82B111
:10EFF000809582B988EC90E00F94C7F1F2CF04B904
:10F000008091C00087FF02C015B864CD85B180959E
:10F0100085B988EC90E00F94C7F1F2CF07B98091E1
:10F02000C00087FF02C018B855CD88B1809588B957
:10F0300088EC90E00F94C7F1F2CF0AB98091C0003C
:10F0400087FF02C01BB846CD8BB180958BB988EC89
:10F0500090E00F94C7F1F2CF8EB180958EB988EC15
:10F0600090E00F94C7F194CF00BB8091C00087FF60
:10F0700002C011BA2FCD81B3809581BB88EC90E09E
:10F080000F94C7F1F2CF03BB8091C00087FF02C08D
:10F0900014BA20CD84B3809584BB88EC90E00F94A3
:10F0A000C7F1F2CF8091020180958093020188EC34
:10F0B00090E00F94C7F17ECF009304018091C000CF
:10F0C00087FF03C01092050105CD80910501809551
:10F0D0008093050188EC90E00F94C7F1EFCF009387
:10F0E00007018091C00087FF03C010920801F2CC95
:10F0F0008091080180958093080188EC90E00F943E
:10F10000C7F1EFCF80910B01809580930B0188ECC4
:10F1100090E00F94C7F15DCF60E08DEA91EE7DCB7A
:10F12000312C212C833009F4A3C008F07FC081303A
:10F1300009F48FC0823009F494C0882309F482C096
:10F1400050E040E04130510509F0E0CA9091C6001E
:10F15000C35DDE4FA881B981CD52D1401196C35D08
:10F16000DE4FB983A883CD52D1409132C9F61A97A8
:10F17000B8F6BFEF2B1A3B0AE3E02E16310491F6E6
:10F18000E5E02E2E312C09E110E081E20F94B4F17C
:10F1900001501109D1F70F94EAF1F1E02F1A31086B
:10F1A00091F710920E0210920F021092100210921C
:10F1B000110210920A0210920B0210920C0210928D
:10F1C0000D0210920602109207021092080210928D
:10F1D000090260E086EE92EE0F94FDF10FEF60E021
:10F1E0008AED92EE0F94D6F10F94C0F1182F80366D
:10F1F00008F01F751032B0F0812F0F94B4F180E247
:10F200000F94B4F1163409F473CC08F0B9CA103471
:10F2100009F4DFCB08F083CA103309F433CB1F3372
:10F2200009F44ECB60E085ED92EEF7CA853079F1B6
:10F23000863009F44EC08430F9F0873009F080CF71
:10F24000912CA8CC9B3109F07BCF8BE1D82E81E0AB
:10F2500077CFD926C65DDE4F9883CA52D14082E06F
:10F260006FCF292F30E0322F2227D92683E068CFB5
:10F27000292BD92684E064CF9E3071F5D926CC5D48
:10F28000DE4F19821882C452D14085E059CFCC5D3F
:10F29000DE4F48815981C452D1404F5F5F4FE1E05A
:10F2A000F0E0EC0FFD1FCC5DDE4F68817981C45228
:10F2B000D140E60FF71F9083D9264217530709F074
:10F2C0000AC2CC5DDE4F39832883C452D14086E028
:10F2D00037CF9D1509F4B4CF80E032CF223109F445
:10F2E0003DC12331C9F0203129F0213109F066CC2C
:10F2F000992493941A8202E010E08AC0293109F41B
:10F300001EC108F05DC0263109F48DC1283109F411
:10F3100001C1253109F052CC0A811B811027012738
:10F320001027233109F050C1CA5DDE4F4881598151
:10F330006A817B81C652D140411580EC580783E039
:10F3400068077105E8F483E0FA0160935B0080933D
:10F350005700E89507B600FCFDCFCA5DDE4F288157
:10F3600039814A815B81C652D1403F5F4F4F5F4F29
:10F37000CA5DDE4F288339834A835B83C652D140FE
:10F380008B85DE011196B301A20121E01B969C91B1
:10F390001B970C01FA0160935B0020935700E895DE
:10F3A00011244E5F5F4F6F4F7F4F0250110912962D
:10F3B0000115110509F4F6C01A968C911A97E6CF3B
:10F3C0002B3109F49BC02D3179F02A3109F0F6CBAD
:10F3D0001A8289E0E1E0F0E08093570084918B830A
:10F3E0001C8204E010E014C09D81903309F04AC0F3
:10F3F0008F81882309F45AC0813009F459C081E013
:10F400001A821B829C831D828E831F8207E010E07C
:10F410008BE10F94B4F1C65DDE4F8881CA52D140B2
:10F420000F94B4F1812F0F94B4F1C65DDE4FD880F4
:10F43000CA52D140D126802F0F94B4F1D0268EE04D
:10F440000F94B4F185E1D82641E050E04C0F5D1FE8
:10F45000040F151F7A010E151F0509F034C18D2DFB
:10F460000F94B4F1C65DDE4FB881CA52D140BF5F80
:10F47000C65DDE4FB883CA52D1409110E6C850E055
:10F4800040E031C9892F807509F4BACF89E0F0E0F6
:10F49000E0E0903539F080E0983509F0B1CF89E0AF
:10F4A000E3E0F0E0809357008491AACF8EE1A8CFEB
:10F4B00088E9A6CF1A8288E08B8381E48C8386E575
:10F4C0008D8382E58E8389E48F8383E5888780E559
:10F4D00089878FE58A8782E38B870BE010E098CFDE
:10F4E000EA81E05980E0E33020F4F0E0E050FE4FA4
:10F4F00080811A828B8303E010E08ACF8D8188237C
:10F5000029F0813029F081E01A8269CF8EE1FCCFA9
:10F5100088E9FACF8B81803571F48C81883039F499
:10F5200089E0E2E0F0E0809357008491EDCF89E03C
:10F53000F0E0E0E0F8CF89E0E3E0F0E0F4CF8D81A7
:10F54000836C99E0E1E0F0E0082E90935700E89595
:10F5500007B600FCFDCF1A821B82CDCF80EC8A83D8
:10F5600002E010E0CA5DDE4F188219821A821B8207
:10F57000C652D1404DCF2A813B814C815D81C05E16
:10F58000DE4F288339834A835B83C052D140CA014E
:10F59000B9010F9486FB2B013C01440C551C661CE1
:10F5A000771CA8CE35E0F20160925B0030935700E3
:10F5B000E89507B600FCFDCF81E180935700E89500
:10F5C0001A822A013B0197CED301C201B695A795B5
:10F5D000979587956C015801A80EB91EC25EDE4F43
:10F5E0008881CE51D140C15EDE4F9881CF51D1404C
:10F5F000CA14DB0469F430E020E0000F111F221F61
:10F60000331FB901A801440D551D661D771DD8CFC4
:10F61000DC016D917D01C6010F94A9FBBFEFCB1AF0
:10F62000DB0AC701E5CF8A819B8198278927982724
:10F630008C010D5F1F4F1A822431C9F4DE0111962F
:10F640006BBEF2012791369112962C931297FD0111
:10F65000349613963C93139722E0420E511C611C82
:10F66000711C02971296009759F71082D1CEFE01B5
:10F6700031969F01280F391FB301A20141BDC52E4C
:10F68000D62EE72EFF24C2BC4F5F5F4F6F4F7F4FD8
:10F69000F89AA0B5A28331962E173F0779F7AC01EF
:10F6A0004150510970E060E04F5F5F4F6F4F7F4FF7
:10F6B000440E551E661E771EE3E0F0E0EC0FFD1FC2
:10F6C000E80FF91FD2CFD701CD907D018C2D0F947B
:10F6D000B4F1DC24C0CECC5DDE4F59834883C452E4
:10F6E000D1402ECD97FB072E16F4009407D077FD5E
:10F6F00009D00F948DFB07FC05D03EF490958195C1
:10F700009F4F0895709561957F4F089569279627BB
:10F7100069277827872778270895AA1BBB1B51E103
:10F7200007C0AA1FBB1FA617B70710F0A61BB70B71
:10F73000881F991F5A95A9F780959095BC01CD0116
:10F740000895F999FECF92BD81BDF89A992780B5A9
:10F750000895262FF999FECF1FBA92BD81BD20BD15
:10F760000FB6F894FA9AF99A0FBE01960895F89494
:02F77000FFCFC9
:04F772000F020A0078
:040000033000E000E9
:00000001FF
