:020000023000CC
:10E000000D9472F00D949BF00D949BF00D949BF089
:10E010000D949BF00D949BF00D949BF00D949BF050
:10E020000D949BF00D949BF00D949BF00D949BF040
:10E030000D949BF00D949BF00D949BF00D949BF030
:10E040000D949BF00D949BF00D949BF00D949BF020
:10E050000D949BF00D949BF00D949BF00D949BF010
:10E060000D949BF00D949BF00D949BF00D949BF000
:10E070000D949BF00D949BF00D949BF00D949BF0F0
:10E080000D949BF00D949BF00D949BF00D949BF0E0
:10E090000D949BF00D949BF00D949BF00D949BF0D0
:10E0A0000D949BF00D949BF00D949BF00D949BF0C0
:10E0B0000D949BF00D949BF00D949BF00D949BF0B0
:10E0C0000D949BF00D949BF00D949BF00D949BF0A0
:10E0D0000D949BF00D949BF00D949BF00D949BF090
:10E0E0000D949BF011241FBECFEFD1E2DEBFCDBF58
:10E0F00001E00CBF12E0A0E0B2E0E2EAF7EE03E0DC
:10E100000BBF02C007900D92A430B107D9F722E0EF
:10E11000A4E0B2E001C01D92A630B207E1F70F946F
:10E12000B8F00D94CFF301E20EBF0FEF0DBF112435
:10E130001FBE0D94B8F00D9400F08093C60080913E
:10E14000C00086FFFCCF8091C00080648093C00037
:10E1500008959C0190E080E08217930709F40895E8
:10E16000EFECF7E03197F1F700C000000196F4CF33
:10E17000CDB7DEB7C452D1400FB6F894DEBF0FBEA4
:10E18000CDBF01E20EBF0FEF0DBF94B7F894A89575
:10E1900014BE8091600088618093600010926000DE
:10E1A000789493FF05C0E0910402F091050219955F
:10E1B0001F9B03C0EE27FF2709948091C000826057
:10E1C0008093C00080E18093C40088E18093C10007
:10E1D000000090E080E040E050E0BA012091C000F3
:10E1E00027FD25C0892B71F000008091C0008D7F34
:10E1F0008093C00081E180935700E895EE27FF27C8
:10E200000994FFCF25E02A95F1F700004F5F5F4F9B
:10E210006F4F7F4F31E020E0413281EA580787E0BD
:10E220006807710508F430E0832F922FD7CF892B30
:10E23000D9F6312C212C812C912C5401412C512CBC
:10E24000320141E050E0CC5DDE4F1882C452D14033
:10E25000D12CDE011B96C25EDE4FB983A883CE515E
:10E26000D14030E020E080E043C0415051096109D5
:10E27000710971F46BBFFA01479156914F3F5F4F9F
:10E2800019F0EE27FF27099441E052E16AE770E0B8
:10E290009091C00097FFE9CF2EC0853009F44EC0A1
:10E2A000863009F45DC0843009F441C08730F1F450
:10E2B0002981243109F4FBC108F068C0263009F433
:10E2C00090C108F052C0223009F44DC1233009F446
:10E2D0003BC1213009F421C180EC8A8399C1D92640
:10E2E000CC5DDE4F9883C452D14082E050E040E0E4
:10E2F0004130510549F69091C6008330A1F068F68F
:10E30000813069F3823041F08111F0CF9B3171F798
:10E310008BE1D82E81E0EACF292F30E0322F22275F
:10E32000D92683E0E3CF292BD92684E0DFCF9E30A6
:10E33000D1F4D926312C212C85E0D8CFA1014F5F13
:10E340005F4FE1E0F0E0EC0FFD1FE20DF31D908365
:10E35000D9261A014217530749F6190186E0C6CF9C
:10E360009D1509F4A5CF80E0C1CF223109F430C159
:10E370002331D1F0203109F4F6C0CC24C3942131EB
:10E3800009F0AACF1A8202E010E075C0293109F421
:10E390000DC108F046C0263109F489C1283109F4BD
:10E3A000F0C0253109F098CF0A811B811027012781
:10E3B0001027233109F040C1811490EC990693E0B5
:10E3C000A906B10470F4A3E0F401A0925B00A0934D
:10E3D0005700E89507B600FCFDCFBFEF9B1AAB0ACC
:10E3E000BB0A8B85DE011196B301A2011B969C919D
:10E3F0001B9721E00C01FA0160935B00209357000A
:10E40000E89511244E5F5F4F6F4F7F4F0250110907
:10E4100012960115110509F4FDC01A968C911A97F0
:10E42000E5CF2B3109F4A1C02D3181F02A3109F05B
:10E4300053CF1A8289E0E1E0F0E0809357008491A5
:10E440008B831C82C12C04E010E015C09D819033A9
:10E4500009F04BC08F81882309F45BC0813009F437
:10E460005AC081E01A821B829C831D828E831F8288
:10E47000C12C07E010E08BE10F949DF0CC5DDE4FE6
:10E480008881C452D1400F949DF0812F0F949DF04C
:10E49000CC5DDE4FD880C452D140D126802F0F945E
:10E4A0009DF0D0268EE00F949DF085E1D82681E086
:10E4B00090E08C0F9D1F080F191F7C010E151F0582
:10E4C00009F046C18D2D0F949DF0CC5DDE4F888103
:10E4D000C452D1408F5FCC5DDE4F8883C452D1409F
:10E4E000C11082CE50E040E0BCCE892F807509F487
:10E4F000B9CF89E0F0E0E0E0903539F080E0983580
:10E5000009F0B0CF89E0E3E0F0E080935700849118
:10E51000A9CF8EE1A7CF88E9A5CF1A8288E08B83A7
:10E5200081E48C8386E58D8382E58E8389E48F8305
:10E5300083E5888780E589878FE58A8782E38B87F3
:10E54000C12C0BE010E097CFEA81E05980E0E33086
:10E5500020F4F0E0E050FE4F80811A828B83C12CC2
:10E5600003E010E088CFC12C0DCF8D81882329F0E6
:10E57000813029F081E01A8263CF8EE1FCCF88E9F7
:10E58000FACF8B81803571F48C81883039F489E041
:10E59000E2E0F0E0809357008491EDCF89E0F0E075
:10E5A000E0E0F8CF89E0E3E0F0E0F4CF8D81836C28
:10E5B00099E0E1E0F0E0082E90935700E89587B7E6
:10E5C000F82FF170CF2E80FDFACF1A821B82C8CFB0
:10E5D00080EC8A83C12C02E010E0812C912C540144
:10E5E0004ACF8A819B81AC81BD81BC01CD010F9452
:10E5F000BAF3C05EDE4F688379838A839B83C052FF
:10E60000D1402B013C01440C551C661C771C1A821E
:10E61000C12CB9CE85E0F20160925B008093570077
:10E62000E89507B600FCFDCF81E180935700E8959F
:10E630001A822A013B01ECCFD301C201B695A795FE
:10E64000979587956C01F801E80FF91FC05EDE4FC2
:10E65000F983E883C052D140C25EDE4F8881CE513B
:10E66000D140C15EDE4F9881CF51D140C05EDE4FB8
:10E67000E881F981C052D140EC15FD0569F430E024
:10E6800020E0000F111F221F331FB901A801440D04
:10E69000551D661D771DCCCFDC016D917D01C60136
:10E6A0000F94C1F3BFEFCB1ADB0AC701DFCF8A811A
:10E6B0009B819827892798278C010D5F1F4F1A820D
:10E6C0002431D1F4DE0111966BBEF201279136910F
:10E6D00012962C931297FD01349613963C93139740
:10E6E00022E0420E511C611C711C02971296009789
:10E6F00059F71082C12CBFCEFE0131969F01280F21
:10E70000391FB301A20141BDC52ED62EE72EFF242D
:10E71000C2BC4F5F5F4F6F4F7F4FF89AA0B5A28387
:10E7200031962E173F0779F7AC014150510970E03F
:10E7300060E04F5F5F4F6F4F7F4F440E551E661E68
:10E74000771EE3E0F0E0EC0FFD1FE80FF91FD1CFDB
:10E75000F70121917F01C05EDE4F2883C052D14076
:10E76000822F0F949DF0C05EDE4F3881C052D140A1
:10E77000D326A4CE69279627692778278727782765
:10E780000895262FF999FECF1FBA92BD81BD20BDF5
:10E790000FB6F894FA9AF99A0FBE01960895F89474
:02E7A000FFCFA9
:04E7A2000F020A0058
:040000033000E000E9
:00000001FF
