:10000000BFC10000EEC10000ECC10000EAC1000069
:10001000E8C10000E6C10000E4C10000E2C1000048
:10002000E0C10000DEC10000DCC10000DAC1000058
:10003000D8C10000D6C10000D4C10000D2C1000068
:10004000D0C10000CEC10000CCC10000CAC1000078
:10005000C8C10000C6C10000C4C100000C940A0B56
:10006000C0C100000C94E00A0C94B70ABAC10000A9
:10007000B8C10000B6C10000B4C10000B2C10000A8
:10008000B0C10000AEC10000ACC10000AAC10000B8
:10009000A8C10000A6C10000A4C100000C94540B2C
:1000A000A0C100009EC100009CC100009AC10000D8
:1000B00098C1000096C1000094C1000092C10000E8
:1000C00090C100008EC100008CC100000C948D0A0C
:1000D0000C94640A86C100000C943A0A0C94110A2C
:1000E00080C10000000020002300260029002C0011
:1000F0002F003200000100000301060109010A205F
:100100004D455453434920424547494E0A000A0A87
:1001100057656C636F6D6520746F204C6942434D69
:100120002076302E302E360A0A000A204D455453D0
:1001300043492044495341424C450A000A204D4559
:100140005453434920454E41424C450A0000000AA1
:100150000B02090C0D0E080703040100000000004B
:10016000000000000000000000000000000000008F
:10017000000000000000000000121110000000004C
:10018000000000000000000000000000000000006F
:100190000000002C20566D696E203D20000A566D2F
:1001A0006178203D20000A4C544320646174612032
:1001B0006572726F720A000A537461636B20766F06
:1001C0006C746167652069733A20000A4D45545389
:1001D00043492042616420436865636B73756D0019
:1001E0000A4D455453434920627566666572207313
:1001F000796E63000A4D4554534349207374616C12
:10020000652E202044697363617264696E6720669D
:1002100072616D653A20004241545453434920466F
:1002200072616D652030784141004241545453431E
:1002300049204672616D6520307838370020616D45
:1002400070732E202054656C6C696E67204D434D91
:100250002063757272656E742069733A20002063A2
:100260006F756E74732C2077686963682069733AC0
:1002700020000A0A52617720414443207265737559
:100280006C742069733A2000506C75676765642050
:10029000496E00556E706C7567676564000A477239
:1002A000696420436861726765723A20004F4E00AE
:1002B0004F4646000A4B65792069733A20000000DA
:1002C0002200250028002B002E00310034000201FE
:1002D0000000050108010B01000021002400270097
:1002E0002A002D0030003300010100000401070145
:1002F0000A010505050507050808080802020202AB
:100300000A0A0808040404040101010101010101B1
:100310000303030303030303040707070C0C0C0C7C
:100320000C0C0C0C02020202060606060606060665
:100330000B0B0B0B0B0B0B0B0102102020080810F2
:100340002040102040800201020108040201010245
:10035000040810204080804020100804020180041E
:100360000201804020100804020108040201010279
:100370000408102040800102040810204080770CFF
:1003800011241FBECFEFD1E2DEBFCDBF00E00CBF16
:1003900028E0AAEFB4E001C01D92A332B207E1F752
:1003A00014E0A0E0B2E0E6EDF3E300E00BBF02C032
:1003B00007900D92AA3FB107D9F711E0C0ECD1E048
:1003C00000E006C021970109802FFE010E94D0178E
:1003D000CF3BD10780E00807A9F70E940D0D0C94D0
:1003E000E9190ECE90E0FC01E85CFC4F24918E50A0
:1003F0009D4FFC018491882399F090E0880F991F0C
:10040000FC01E852FD4FA591B491FC01E254FD4F6F
:10041000859194918FB7F894EC91E22BEC938FBF78
:10042000089508950895AF92BF92CF92DF92EF9210
:10043000FF920F931F93CF93DF936C017B018B018E
:10044000040F151FEB015E01AE18BF08C017D107DE
:1004500059F06991D601ED91FC910190F081E02D68
:10046000C6011995892B79F7C501DF91CF911F91AD
:100470000F91FF90EF90DF90CF90BF90AF900895D5
:10048000FC0144815581608171818AE697E0CBCF80
:10049000FC01A089B1898C91A689B78982FD0FC022
:1004A0009C91818D8F5F8F73228D821749F0A18D72
:1004B000AE0FBF2FB11D5D969C93818F08958C91D7
:1004C0000895FC01538D448D252F30E0842F90E05A
:1004D000821B930B541710F0CF960895019708953F
:1004E000FC01918D828D981761F0A28DAE0FBF2F08
:1004F000B11D5D968C91928D9F5F9F73928F90E05E
:1005000008958FEF9FEF0895FC01918D828D9817CC
:1005100031F0828DE80FF11D858D90E008958FEF09
:100520009FEF0895FC01918D228D892F90E0805CD2
:100530009F4F821B91098F739927089580E396E05E
:10054000F1DF21E0892B09F420E0822F08958DEC62
:1005500096E0E8DF21E0892B09F420E0822F08955E
:100560008AE697E0DFDF21E0892B09F420E0822F83
:100570000895CF92DF92EF92FF921F93CF93DF9374
:10058000EC016A017B01122FE889F98982E08083FE
:10059000C11481EED806E104F104B1F160E079E024
:1005A0008DE390E0A70196010E94AE17215031091A
:1005B000410951095695479537952795EC85FD8555
:1005C0001082EE85FF852083188EEC89FD891083CB
:1005D000EA89FB89808180618083EA89FB89808147
:1005E00088608083EA89FB89808180688083EA89CA
:1005F000FB8980818F7D8083DF91CF911F91FF9058
:10060000EF90DF90CF900895E889F989108220E17A
:10061000D5CFFC01A48DA80FB92FB11DA35ABF4F90
:100620002C91848D90E001968F739927848FA689F1
:10063000B7892C93A089B1898C91837080648C9345
:10064000938D848D981306C00288F389E02D8081F4
:100650008F7D80830895EF92FF920F931F93CF9326
:10066000DF93EC0181E0888F9B8D8C8D98131AC0ED
:10067000E889F989808185FF15C09FB7F894EE89D4
:10068000FF896083E889F989808183708064808331
:100690009FBF81E090E0DF91CF911F910F91FF907C
:1006A000EF900895F62E0B8D10E00F5F1F4F0F7324
:1006B0001127E02E8C8D8E110BC00FB607FCFACFE0
:1006C000E889F989808185FFF5CFCE01A2DFF2CFDD
:1006D000EB8DEC0FFD2FF11DE35AFF4FF0829FB71A
:1006E000F8940B8FEA89FB8980818062D0CF0F93C9
:1006F0001F93CF93DF938C01D0E0C0E0F801EC0FA3
:10070000FD1F6491662339F08AE697E0A4DF892B08
:1007100011F02196F3CFCE01DF91CF911F910F9170
:100720000895CF93DF93EC01888D8823B1F0AA89D7
:10073000BB89E889F9898C9185FD03C0808186FD9C
:100740000CC00FB607FCF7CF8C9185FFF2CF8081EC
:1007500085FFEDCFCE015DDFEACFDF91CF91089528
:1007600080E090E0892B21F0FBDE81110E940000E7
:1007700080E090E0892B49F080E090E0892B29F01F
:100780000E94000081110E94000080E090E0892B0F
:1007900021F0DDDE81110E94000080E090E0892BD5
:1007A00021F0CCDE81110C9400000895815082313B
:1007B00008F05AC0E82FF0E08827EE51FC4F8F4F29
:1007C0000C94D01702040604F403FA03FE03340465
:1007D00009040F04130419041D04210427042B0425
:1007E00034042F0435043904809180008F7780937E
:1007F00080000895809180008F7DF9CF80918000E6
:10080000877FF5CF84B58F7784BD089584B58F7DBC
:10081000FBCF8091B0008F778093B00008958091D6
:10082000B0008F7DF9CF809190008F7780939000FA
:100830000895809190008F7DF9CF80919000877FFF
:10084000F5CF8091A0008F778093A00008958091CC
:10085000A0008F7DF9CF8091A000877FF5CF809198
:1008600020018F77809320010895809120018F7D52
:10087000F9CF80912001877FF5CFCF93DF93282F89
:1008800030E0F901E35BFE4F8491F901E85CFC4F35
:10089000D491F901EE50FD4FC491CC2399F0811110
:1008A00085DFEC2FF0E0EE0FFF1FEC51FF4FA5911D
:1008B000B491EC91ED2381E090E009F480E0DF91C8
:1008C000CF91089580E090E0FACF1F93CF93DF930C
:1008D000282F30E0F901E35BFE4F8491F901E85CD9
:1008E000FC4FD491F901EE50FD4FC491CC23A1F0FF
:1008F000162F81115BDFEC2FF0E0EE0FFF1FE254AB
:10090000FD4FA591B4918FB7F894EC91111108C0E7
:10091000D095DE23DC938FBFDF91CF911F91089597
:10092000DE2BF8CF3FB7F8948091B1059091B205D6
:10093000A091B305B091B40526B5A89B05C02F3F83
:1009400019F00196A11DB11D3FBFBA2FA92F982FF5
:100950008827BC01CD01620F711D811D911D42E0F0
:10096000660F771F881F991F4A95D1F708958F92B8
:100970009F92AF92BF92CF92DF92EF92FF924B0184
:100980005C01D0DF6B017C01CDDF6C197D098E0924
:100990009F09683E734081059105B0F321E0821AFA
:1009A0009108A108B10888EEC80E83E0D81EE11CAA
:1009B000F11C81149104A104B10431F7FF90EF9070
:1009C000DF90CF90BF90AF909F908F90089520912F
:1009D0006205260F3327331F21323105ECF42091B5
:1009E0008605FC0190E080E0243069F082E0089503
:1009F000A09162052191AC014E5B5A4FA40FB52F17
:100A0000B11D2C930196861798F380916205680FAB
:100A10006093620580E0089581E008951092860554
:100A200081E0809388051092870561E084E14DDFC5
:100A300061E085E14ADFE9EBF0E080818E7F808331
:100A400080818D7F808388E48093B80085E48093E3
:100A5000BC000895CF93DF9391E0909341058823E4
:100A6000A1F0C091B800D091BA008091BC008A7BFF
:100A70008093BC0060E084E128DF60E085E125DF51
:100A8000CDDFD093BA00C093B800DF91CF91089525
:100A90000895E091BD058091BC05E81730F4F0E0C1
:100AA000E45EFA4F808190E008958FEF9FEF089504
:100AB0009091BD058091BC052FEF3FEF981748F44A
:100AC000E92FF0E0E45EFA4F208130E09F5F9093E1
:100AD000BD05C90108958091BC059091BD05891B94
:100AE000990B0895CF92DF92EF92FF920F931F938D
:100AF000CF93DF937C01CB018A0120911B05222338
:100B000089F0EB016B01C40ED51ECC15DD0561F03B
:100B10006991D701ED91FC910190F081E02DC70121
:100B20001995F3CF642F53DFC801DF91CF911F9147
:100B30000F91FF90EF90DF90CF900895CF93DF93C8
:100B40001F92CDB7DEB7698320911B052223F9F0F0
:100B50002091BA05203258F021E030E0FC013383C7
:100B6000228390E080E00F90DF91CF9108958091F3
:100B7000BB05E82FF0E0E550FB4F998190838F5F34
:100B80008093BB058093BA0581E090E0ECCF61E0F3
:100B9000CE0101961CDFF8CF80E396E0A1CC08954A
:100BA000CF92DF92EF92FF920F931F93CF93DF9339
:100BB000FC01C48121E020931B05C093FA0410922C
:100BC000BB051092BA058385682B87E098E0B6DFF5
:100BD000D091BA05D13208F08CC0A4DE6B017C0143
:100BE00080918605811162C082E08093860581E054
:100BF000809388058FEF809385051092AA05D09386
:100C0000A905ABEFB4E0E9E8F5E080E0D81380C0D7
:100C10001092AB058091AB05CC0FC82BC093AB05F0
:100C200080918705813009F077C0109287057ADEC0
:100C30006B017C018091AB058093BB0080913D05E9
:100C400090913E05A0913F05B0914005892B8A2BDC
:100C50008B2B91F067DE00913D0510913E052091B0
:100C60003F05309140056C197D098E099F090617D3
:100C7000170728073907D0F18091BC0083FDDACF30
:100C800085EC8093BC004EDE6B017C018091860573
:100C9000823009F443C0809185058F3F51F18091E6
:100CA0008505803231F18091850523C080913D0515
:100CB00090913E05A0913F05B0914005892B8A2B6C
:100CC0008B2B09F48DCF2EDE00913D0510913E0552
:100CD00020913F05309140056C197D098E099F09CF
:100CE000061717072807390708F07ACF80913C05C7
:100CF000B1DE1092BB051092BA0510921B05DF9170
:100D0000CF911F910F91FF90EF90DF90CF900895BA
:100D10009D9191938F5F7ACF85EEB3CF80913D0502
:100D200090913E05A0913F05B0914005892B8A2BFB
:100D30008B2B09F4ABCFF6DD00913D0510913E05FC
:100D400020913F05309140056C197D098E099F095E
:100D5000061717072807390708F098CFC7CF089557
:100D600090E080E00895462FDB0120E130E09D9186
:100D7000722F6627F901EE0FEF2FEE1FFF0BF19593
:100D8000E927FF27EE0FFF1FED5EFD4F2081318128
:100D9000262737279A2F941B981748F3C901880FE5
:100DA000991F089560E085E390DD61E070E080E0E8
:100DB00090E0DDDD61E085E388CD60E085E385DD01
:100DC00083E290E00197F1F761E085E37ECD0F9338
:100DD0001F93CF938C01C62FE3DE6C2F6460C80194
:100DE000DFDE6C2F6B7FC801DBDE83EC90E00197C8
:100DF000F1F7CF911F910F9108950F931F93CF9308
:100E0000DF938C01D62FC42F607F642BE0DF80E15D
:100E1000D89FB00111246C2BC801DF91CF911F9195
:100E20000F91D5CFCF93DF9300D000D01F921F92A8
:100E3000CDB7DEB798E0EBE0F2E0DE01119601906D
:100E40000D929A95E1F790911C08961710F46FEFA8
:100E5000690F262F30E0220F331F41E050E04C0F86
:100E60005D1F240F351FF9016081680F606840E045
:100E700083E198E028960FB6F894DEBF0FBECDBF91
:100E8000DF91CF91BACF41E0B8DF81E090E00895E3
:100E9000CF93DF93EC0188819981009711F00E9434
:100EA0007418198218821D821C821B821A82DF919B
:100EB000CF910895FC0180819181009711F00C94ED
:100EC00074180895FB0101900020E9F73197AF01F4
:100ED000461B570BDC01ED91FC910280F381E02D64
:100EE00019948F929F92AF92BF92EF92FF920F93BD
:100EF0001F93CF93DF93CDB7DEB7A1970FB6F894CA
:100F0000DEBF0FBECDBF7C01FA01CB0119A222309A
:100F100008F42AE08E010F5D1F4F822E912CB12C18
:100F2000A12CBF01A50194010E94AE17F901CA01CD
:100F30006A3004F5605DD8016E938D01232B242B5C
:100F4000252B79F790E080E0109719F0BD01C701DB
:100F5000B9DFA1960FB6F894DEBF0FBECDBFDF910B
:100F6000CF911F910F91FF90EF90BF90AF909F9006
:100F70008F900895695CDFCF2F923F924F925F92DE
:100F80006F927F928F929F92AF92BF92CF92DF9299
:100F9000EF92FF921F93CF93DF93EC016A017B01E5
:100FA000722EAB019601CB01B6010E94AA1763E431
:100FB00074E0811126C046015701E894B7F82FEF7D
:100FC0003FEF4FE75FE7C501B4010E94AA17811107
:100FD0000CC02FEF3FEF4FE75FE7C501B4010E9460
:100FE0008F1567E474E0181664F02FEF3FEF4FE7BA
:100FF0005FE4C701B6010E94A6171816ACF46BE4B3
:1010000074E0CE01DF91CF911F91FF90EF90DF90C0
:10101000CF90BF90AF909F908F907F906F905F9098
:101020004F903F902F904ECF2FEF3FEF4FE75FEC69
:10103000C701B6010E948F1587FDE1CF20E030E0A7
:10104000A901C701B6010E948F15312C212C87FF01
:101050000DC0E881F9810190F081E02D6DE2CE01B3
:1010600019951C01F7FAF094F7F8F09410E060E09D
:1010700070E080E09FE3711641F020E030E040E254
:1010800051E40E940D171F5FF6CFA70196010E9441
:10109000A9162B013C010E947A174B015C012AE042
:1010A000BC01A401CE011DDF7C01E20CF31C112365
:1010B000D9F1C501B4010E9493159B01AC01C30194
:1010C000B2010E94A8164B015C01E881F9810190F0
:1010D000F081E02D6EE2CE011995E80EF91E115057
:1010E00018F120E030E040E251E4C501B4010E9473
:1010F000F4152B013C010E947A174B01B12CA12C55
:101100002AE0B501A401CE01ECDEE80EF91EC5010E
:10111000B4010E9493159B01AC01C301B2010E946E
:10112000A8164B015C01DBCFC701DF91CF911F9166
:10113000FF90EF90DF90CF90BF90AF909F908F90F7
:101140007F906F905F904F903F902F900895BACE10
:101150001092C6051092C5051092C40563E087E0A1
:1011600061DE6FE474E083E198E0F1CF0F931F93A9
:10117000CF93DF93EC0188819981009759F02A8100
:101180003B812617370730F081E0DF91CF911F9127
:101190000F9108958B016F5F7F4F0E94FD1800979C
:1011A00059F0998388831B830A832C813D81232BEB
:1011B00059F7FC011082E8CF80E0E7CFEF92FF9271
:1011C0000F931F93CF93DF93EC017B011982188259
:1011D0001B821A821D821C82FB0101900020E9F70C
:1011E00031978F01061B170BB801C0DF811108C0B2
:1011F000CE01DF91CF911F910F91FF90EF9048CEDC
:101200001D830C83B70188819981DF91CF911F9154
:101210000F91FF90EF900C94E219EF92FF920F93D1
:101220001F93CF93DF938C017B01EB01099000208A
:10123000E9F72197C61BD70BBE0198DF811108C0C3
:10124000C801DF91CF911F910F91FF90EF9020CEB9
:10125000F801D583C483B70180819181DF91CF915B
:101260001F910F91FF90EF900C94E2190F931F9331
:10127000CF93DF93CDB7DEB762970FB6F894DEBF9A
:101280000FBECDBF8C01CB01F801118210821382F9
:101290001282158214824AE0BE016F5F7F4F0E9466
:1012A0005215BE016F5F7F4FC801B7DF62960FB660
:1012B000F894DEBF0FBECDBFDF91CF911F910F918C
:1012C00008950F931F93CF93DF9300D000D000D0E9
:1012D000CDB7DEB78C01862FF80111821082138200
:1012E00012821582148250E0BE016F5F7F4F90E042
:1012F0000E945C15BE016F5F7F4FC8018EDF29968B
:101300000FB6F894DEBF0FBECDBFDF91CF911F9116
:101310000F910895EF92FF920F931F93CF93DF9356
:101320006115710541F480E0DF91CF911F910F911C
:10133000FF90EF90089541155105A9F07B01EC0154
:101340000C811D81040F151FB80110DF882359F38C
:10135000288139818C819D81B701820F931F0E9462
:10136000E2191D830C8381E0DFCFCF93DF93EC0183
:10137000FB0101900020E9F73197AF01461B570BA5
:10138000C9DF811102C0CE0183DDCE01DF91CF9193
:101390000895CF93DF93EC01FB0144815581608177
:1013A0007181B8DF811102C0CE0172DDCE01DF9103
:1013B000CF91089585ED8093BC0080913D0590917B
:1013C0003E05A0913F05B09140050796A11DB11DB6
:1013D00023E0B695A795979587952A95D1F7209103
:1013E000BC0024FD03C010928605089540913D0580
:1013F00050913E0560913F0570914005452B462B6D
:10140000472B69F30097A105B10541F025E32A9523
:10141000F1F700000197A109B109E1CF80913C05E6
:1014200019CB1F920F920FB60F9211240BB60F9289
:101430002F933F934F935F936F937F938F939F93DC
:10144000AF93BF93EF93FF9380E396E0E2D8FF91D1
:10145000EF91BF91AF919F918F917F916F915F912C
:101460004F913F912F910F900BBE0F900FBE0F9099
:101470001F9018951F920F920FB60F9211240BB662
:101480000F922F933F934F935F936F937F938F931D
:101490009F93AF93BF93EF93FF9380E396E00E94F7
:1014A0004802FF91EF91BF91AF919F918F917F91F2
:1014B0006F915F914F913F912F910F900BBE0F90C5
:1014C0000FBE0F901F9018951F920F920FB60F929C
:1014D00011240BB60F922F933F934F935F936F930B
:1014E0007F938F939F93AF93BF93EF93FF938DEC75
:1014F00096E08FD8FF91EF91BF91AF919F918F911F
:101500007F916F915F914F913F912F910F900BBE03
:101510000F900FBE0F901F9018951F920F920FB64D
:101520000F9211240BB60F922F933F934F935F931B
:101530006F937F938F939F93AF93BF93EF93FF939B
:101540008DEC96E00E944802FF91EF91BF91AF9120
:101550009F918F917F916F915F914F913F912F91CB
:101560000F900BBE0F900FBE0F901F9018951F92FB
:101570000F920FB60F9211240BB60F922F933F9339
:101580004F935F936F937F938F939F93AF93BF938B
:10159000EF93FF938AE697E03CD8FF91EF91BF91DC
:1015A000AF919F918F917F916F915F914F913F91FB
:1015B0002F910F900BBE0F900FBE0F901F9018959C
:1015C0001F920F920FB60F9211240BB60F922F930A
:1015D0003F934F935F936F937F938F939F93AF93BB
:1015E000BF93EF93FF938AE697E00E944802FF9132
:1015F000EF91BF91AF919F918F917F916F915F918B
:101600004F913F912F910F900BBE0F900FBE0F90F7
:101610001F9018951F920F920FB60F9211242F93BF
:101620003F938F939F93AF93BF938091AD0590911C
:10163000AE05A091AF05B091B0053091AC0523E0A7
:10164000230F2D3758F50196A11DB11D2093AC0530
:101650008093AD059093AE05A093AF05B093B00510
:101660008091B1059091B205A091B305B091B405F8
:101670000196A11DB11D8093B1059093B205A09371
:10168000B305B093B405BF91AF919F918F913F91F6
:101690002F910F900FBE0F901F90189526E8230FE3
:1016A0000296A11DB11DD2CF1F920F920FB60F92BD
:1016B00011240BB60F922F933F934F935F936F9329
:1016C0007F938F939F93AF93BF93EF93FF938091FB
:1016D000B900887F803609F44CC008F03FC08832DA
:1016E00009F4A8C028F5803109F49CC0C8F4882307
:1016F00009F4FAC0883009F495C0FF91EF91BF91C9
:10170000AF919F918F917F916F915F914F913F9199
:101710002F910F900BBE0F900FBE0F901F9018953A
:10172000883109F487C0803241F78093850514C061
:10173000803409F49CC040F48033B9F38833E9F66F
:101740008093850585ECAFC0803509F484C0883569
:1017500009F495C0883489F62DDECFCF883909F495
:101760008CC038F5883729F050F4883611F080376E
:1017700021F683E0809386051092840557C088384F
:1017800009F47BC0803919F0803809F0B6CF809118
:101790008405803208F071C0E091840581E08E0FED
:1017A000809384058091BB00F0E0EC59FA4F808370
:1017B0003DC0803B39F0E0F4803A09F479C0883AC2
:1017C00009F09BCF84E08093860510926305109208
:1017D0006205E091B805F091B9051995809162050F
:1017E00081110FC081E0809362051092420509C00B
:1017F000803C09F4A7CF883C09F4A4CF883B09F0CA
:101800007CCFE091630581E08E0F80936305F0E06B
:10181000EE5BFA4F80818093BB00909163058091CD
:10182000620529C08091AB058093BB0085EC809355
:10183000BC0063CF9091AA058091A905981758F52F
:10184000E091AA0581E08E0F8093AA05F0E0E757AA
:10185000FA4F8081E9CFE091AA0581E08E0F809355
:10186000AA058091BB00F0E0E757FA4F8083909182
:10187000AA058091A9059817C8F285E8D8CFE0910C
:10188000AA0581E08E0F8093AA058091BB00F0E04D
:10189000E757FA4F80838091880581115DCF81E001
:1018A0008093870584EA8093BC001092860525CF3B
:1018B00085EC8093BC00109286058091840580326F
:1018C00030F4E0918405F0E0EC59FA4F1082609119
:1018D000840570E0E091B605F091B70584E695E0E7
:1018E00019951092840509CF1092850535CFE0E354
:1018F000F6E01382128288EE93E0A0E0B0E08483E9
:101900009583A683B78327E134E03183208345E3C1
:1019100051E05587448744E351E05787468740E3C9
:1019200051E0518B408B41E351E0538B428B42E3BA
:1019300051E0558B448B46E351E0578B468B118E1B
:10194000128E138E148EEDECF6E0138212828483D5
:101950009583A683B7833183208345ED50E0558777
:10196000448744ED50E05787468740ED50E0518B67
:10197000408B41ED50E0538B428B42ED50E0558B54
:10198000448B46ED50E0578B468B118E128E138E92
:10199000148EEAE6F7E01382128284839583A6838D
:1019A000B7833183208325EC30E03587248724EC0E
:1019B00030E03787268720EC30E0318B208B21EC1C
:1019C00030E0338B228B22EC30E0358B248B26ECFD
:1019D00030E0378B268B118E128E138E148EE7E03B
:1019E000F8E01382128284839583A683B78389E209
:1019F00094E091838083E3E1F8E0138212828BE329
:101A000094E09183808387E2848384E1808784E00B
:101A10008187128688E083870895CF93DF93CDB7BF
:101A2000DEB7E0970FB6F894DEBF0FBECDBF789457
:101A300084B5826084BD84B5816084BD85B58260D3
:101A400085BD85B5816085BD80916E008160809384
:101A50006E001092810080918100826080938100ED
:101A600080918100816080938100809180008160FD
:101A7000809380008091B10084608093B100809158
:101A8000B00081608093B00080919100826080936B
:101A900091008091910081608093910080919000ED
:101AA0008160809390008091A10082608093A1006A
:101AB0008091A10081608093A1008091A00081604D
:101AC0008093A00080912101826080932101809108
:101AD00021018160809321018091200181608093A8
:101AE000200180917A00846080937A0080917A004E
:101AF000826080937A0080917A00816080937A007E
:101B000080917A00806880937A001092C1008EE301
:101B10000E94F20160E08EE30E9465048CE00E9466
:101B2000F20160E08CE00E94650482E40E94F20110
:101B300061E082E40E94650483E40E94F20184E48F
:101B40000E94F20185E40E94F20187E00E94F20106
:101B500087E00E94F20160E087E00E9465048BE06C
:101B60000E94F20187E30E94F20188E30E94F201E1
:101B70008AE00E94F20184E00E94F2018FE30E9459
:101B8000F20161E08FE30E9465046AE070E080E0AA
:101B900090E00E94B7041092000226E040E052EC70
:101BA00061E070E08AE697E00E94B90282E00E945C
:101BB000F20160E082E00E94650483E00E94F2018D
:101BC00061E083E00E94650426E240E855E260E0BF
:101BD00070E080E396E00E94B90281E08093030206
:101BE0008EEF90E00E94770380E40E94F20160E0B3
:101BF00080E40E94650481E40E94F20161E081E4D6
:101C00000E94650426E240E855E260E070E08DEC59
:101C100096E00E94B9029CDA1FB7F8948091B5054E
:101C2000811124C0E7E2F3E08491EDE6F3E09491C2
:101C3000E82FF0E0EE0FFF1FE852FD4FA591B491A1
:101C4000EC91E92321F461E085E30E94650485E3DA
:101C50000E94F2018CB580618CBD8CB580648CBD16
:101C600084E30E94F20183E30E94F2018091B505B2
:101C70008F5F8093B5051FBF8CB58C7F82608CBD54
:101C80008DB58E7F8DBD83E08093BE0580E6809309
:101C9000BF051092BD051092BC051092BB051092B5
:101CA000BA050E940E0581E192E09093B9058093F8
:101CB000B80582E192E09093B7058093B605109243
:101CC000180880911C08823018F098E0909318084A
:101CD00090911D08992339F0813029F480911808DA
:101CE00084608093180862E370E080E090E00E94D6
:101CF000B70460911E0883E198E00E94D00568EE69
:101D000073E080E090E00E94B70460E383E198E034
:101D10005ED80BE416E4C8010197F1F760E383E1B4
:101D200098E055D8C8010197F1F760E383E198E0A6
:101D30004ED883E592E00197F1F760E283E198E005
:101D400046D860911808606240E083E198E055D879
:101D500084E08093190840E06CE083E198E04DD87E
:101D600040E061E083E198E048D80BE31FE1C8015F
:101D70000197F1F782E080931A0840E066E083E182
:101D800098E03BD840E062E083E198E036D8C801B3
:101D90000197F1F780918100887F816080938100B5
:101DA0008EE091E00E947703AE014B5F5F4F5BA72F
:101DB0004AA78DE00E943D048CA780912F065CA568
:101DC000581759F184EB92E00E947703C1D98CA592
:101DD0008111C2C280EB92E00E94770360E080E450
:101DE0000E9465041092270661E083E00E9465046A
:101DF000109203028AE291E00E94770360E087E399
:101E00000E94650460E08CE00E94650410921E0848
:101E100060E083E198E00E94D0059CA590932F0696
:101E200089E00E943D048C01FF24F394892B09F082
:101E3000F12C80912E06F81619F18DE992E00E949E
:101E400077030115110509F4B0C283E992E00E94FD
:101E500077038BE00E94F20160E08BE00E94650452
:101E600060E08AE00E9465046DE574E08AE697E030
:101E70006ED910921E0860E083E198E00E94D005C0
:101E8000F0922E06ECA5E13019F0012B09F0EEC519
:101E900061E085E40E9465040E94D2068091BE053F
:101EA00089838091BF058A836EEB75E082E00E9492
:101EB000B3069B838C830E94DD0660E085E30E946D
:101EC0006504FE013196DE2ECF2E81918EBD0DB4BC
:101ED00007FEFDCF4AA55BA54E175F07B1F761E08E
:101EE00085E30E94650480E490E0F12CE12C2091D0
:101EF0007B00277F20937B002091000250E4259FE8
:101F00009001112420937C0020917A00206420937A
:101F10007A0020917A0026FDFCCF30917800209144
:101F20007900232732272327E20EF31E0197F9F6C3
:101F300076E0F694E7947A95E1F782E792E00E94E2
:101F40007703B7018D2D9C2D91D98D2D9C2D0E944D
:101F500040028D2D9C2D0E945A078DE08E9D8001A0
:101F60008F9D100D1124E6E015950795EA95E1F790
:101F7000035411098EE592E00E947703B8018D2D7C
:101F80009C2D74D98D2D9C2D0E9440028D2D9C2D51
:101F90000E945A078DE392E00E947703B801110F67
:101FA000880B990BC2D523E333E343E35FE31CD6ED
:101FB0009CD76DA77EA78FA798AB6DA57EA58D2D0D
:101FC0009C2D54D98D2D9C2D0E9440028D2D9C2D31
:101FD0000E945A070E94D20680E290E0E9D78C0165
:101FE000F7EC2F2EF5E03F2E2101A12CBB24B3945A
:101FF000A4E06A2E81E0B812E0C16A8219820E94D0
:10200000DD064801780160E9762E79826D2D7C2D00
:1020100082E00E94B3069B838C8360E085E30E948C
:102020006504ED2DFC2D81918EBD0DB407FEFDCF15
:102030008AA59BA58E179F07B1F7F70188E09FEF50
:102040009EBD0DB407FEFDCF9EB591938150B9F7AB
:1020500061E085E30E946504E8E07E0EF8E0EF0EA3
:10206000F11C20EB7212D1CF7201712C46E0470DAA
:10207000F701272DD801A20FB11D11968C91119750
:1020800090E0982F88273C91830F911D8193919325
:102090002E5F2413EFCFB40186E00E94B306F40153
:1020A000268130E0322F22274781240F311D281747
:1020B000390711F0AA24A394F8E07F0E28E0820EDD
:1020C000911C48E1E40EF11C50E27512CFCFB3949D
:1020D00086E0480E511C95E0B9128CCFC8010E94D1
:1020E0007418AA2009F478C186EA91E00E94770367
:1020F0001092C3058091C5059091C60501969093F5
:10210000C6058093C5058091C2058F5F8093C20587
:102110009091C405981710F48093C40517ECC12E54
:1021200015E0D12E10E000E0EE24EA94FE2C90E0C1
:1021300080E0FC01EE0FFF1FEC0DFD1D20813181C1
:102140002E153F0508F479010217130708F48901D9
:1021500001968C30910569F7E8E1CE0ED11C47E27B
:1021600056E04C155D0519F78DE991E00E94770363
:10217000B80190E080E0D7D427E137EB41ED58E398
:1021800033D52B013C0124E0BC01A2018AE697E093
:102190000E94BC0783E991E00E947703B70190E0B9
:1021A00080E0C1D427E137EB41ED58E31DD54B0169
:1021B0005C0124E0BC01A4018AE697E00E94BC0710
:1021C0008091C305882309F492C060E080E00E94FA
:1021D000120764E774E083E198E00E94A70823E017
:1021E000B301A20183E198E00E94BC078091C00581
:1021F0009091C1058017910718F51093C1050093C0
:10220000C00568E774E083E198E00E94A708609148
:10221000C0057091C10590E080E085D427E137EBDF
:1022200041ED58E3E1D4AB01BC0123E083E198E048
:102230000E94BC076FE774E083E198E00E94A70862
:1022400061E080E00E94120761E874E083E198E0B9
:102250000E94A70823E0B501A40183E198E00E9451
:10226000BC078091010290910202E816F90618F568
:10227000F0920202E092010265E874E083E198E0E6
:102280000E94A708609101027091020290E080E034
:102290004AD427E137EB41ED58E3A6D4AB01BC01AA
:1022A00023E083E198E00E94BC076FE774E083E1DC
:1022B00098E00E94A70862E080E00E9412076CE8A4
:1022C00074E083E198E00E94A708B8016E197F09C5
:1022D00090E080E028D427E137EB41ED58E384D447
:1022E000AB01BC0123E083E198E00E94BC07093503
:1022F00058E9150708F076C089E00E943D04892B53
:1023000009F070C00732184908F07DC061E08AE02A
:102310000E9465048BE00E94F201E8E5F1E0E4919F
:10232000E150E23108F065C0F0E08827E656FE4E45
:102330008F4F36C6FE11E612EC12F8120413F91193
:102340001013191322132E133A1346135713631342
:10235000F9116F137B1387138DEA92E00E947703C4
:1023600061E080E40E94650411E01093270660E0BC
:1023700083E00E9465041093030210922B061092D2
:102380002A0610922C0610922D068CE391E00E94F2
:10239000770361E087E30E94650461E08CE00E94BE
:1023A000650488E080931E0833CD88E892E00E949F
:1023B000770388E080931E085ECD92E0B91203C0D7
:1023C000E6E0EA831BCEF3E0BF1203C028E02A83D5
:1023D00015CE4AE04A8312CE81E08093C305109265
:1023E000C2059CCE60E08AE00E9465048BE00E94FA
:1023F000F20160E08BE00E94650405C084B580684E
:1024000084BD8DE787BD4AE06091C205CE0101968B
:102410000E9461096FE874E0CE0142960E94DE08D6
:10242000BE016F5F7F4FCE0142960E94C9090E9494
:102430004002CE0142960E945A07CE0101960E94A8
:102440005A078091C5059091C6051B8A1A8A1D8A74
:102450001C8A1F8A1E8A4AE0BE016F5F7F4F36D3F7
:10246000BE016F5F7F4FCE0142960E940D096CEA5C
:1024700074E0CE0101960E94DE08BE016E5E7F4FC1
:10248000CE0101960E94C9090E944002CE01019628
:102490000E945A07CE0142960E945A0760E070E0FF
:1024A000CB0150E040E0FA01EE0FFF1FE20DF31DFB
:1024B00020813181620F731F811D911D4F5F5F4F1E
:1024C0004C30510581F7E8E12E0E311CC214D304C3
:1024D00041F729D327E137EB41ED58E385D30AD5FE
:1024E000E62E87EB91E00E9477034AE06E2DCE0145
:1024F00001960E946109CE0101960E944002CE0120
:1025000001960E945A0762E087E00E94120762EC7F
:1025100074E083E198E00E94A7084E2D50E070E03F
:1025200060E02AE083E198E00E94710763E080E0C8
:102530000E9412076BEC74E083E198E00E94A70808
:102540004091C5055091C60570E060E02AE083E146
:1025500098E00E94710763ED74E083E198E00E94C7
:10256000A7084091C40550E070E060E02AE083E1F4
:1025700098E00E9471076FE774E083E198E00E94A1
:10258000A708FCA5FF2309F4CAC180E396E00E94D6
:1025900092028D3008F4C7C084EF91E00E94770367
:1025A00006E010E00E94CC0540E1682FCE010196C4
:1025B0000E946109CE0101960E944002CE0101965F
:1025C0000E945A070150110969F7DFCF84B5806274
:1025D00084BD8DE788BD17CF80918000806880938F
:1025E00080008DE790E090938900809388000BCF66
:1025F000809180008062809380008DE790E09093CE
:102600008B0080938A00FFCE809180008860809349
:1026100080008DE790E090938D0080938C00F3CE46
:102620008091B00080688093B0008DE78093B30004
:10263000EACE8091B00080628093B0008DE78093F5
:10264000B400E1CE809190008068809390008DE787
:1026500090E09093990080939800D5CE809190005F
:102660008062809390008DE790E090939B00809330
:102670009A00C9CE809190008860809390008DE789
:1026800090E090939D0080939C00BDCE8091A0002F
:1026900080688093A0008091A0008F7B8093A00031
:1026A0008DE790E09093A9008093A800ACCE809134
:1026B000A00080628093A0008DE790E09093AB0033
:1026C0008093AA00A0CE8091A00088608093A00093
:1026D0008DE790E09093AD008093AC0094CE809114
:1026E00020018068809320018DE790E0909329017C
:1026F0008093280188CE8091200180628093200100
:102700008DE790E090932B0180932A017CCE8091FD
:1027100020018860809320018DE790E090932D0147
:1027200080932C0170CE80910302811109C0109218
:102730002A0610922B0610922C0610922D0612C01B
:1027400080E396E00E949202873060F019E10E94D7
:10275000CC05863E09F4ECC080EE91E00E94770340
:102760001150A9F780912A0690912B06A0912C0672
:10277000B0912D0680932A0690932B06A0932C06E9
:10278000B0932D0640E160912D06CE0101960E9486
:10279000610940E160912B06CE0142960E946109D9
:1027A00040E160912C06CE0148960E94610940E10B
:1027B00060912A06CE014E960E94610968ED74E090
:1027C000CE0184960E94DE08BE01625E7F4FCE017C
:1027D00084960E94C90965EE74E00E94B509BE01A5
:1027E000685E7F4F0E94C9096CEE74E00E94B509D3
:1027F000BE016E5E7F4F0E94C90963EF74E00E94C4
:10280000B509BE016F5F7F4F0E94C9090E94400257
:10281000CE0184960E945A07CE014E960E945A0716
:10282000CE0148960E945A07CE0142960E945A074E
:10283000CE0101960E945A07F0902B06D0902C06EC
:102840008DEC96E00E9461028D3008F468C08091A2
:102850002706813009F063C02CEE4DA55EA5240348
:102860008001259F100D1124185F80910402873884
:1028700009F0ABC08AE292E00E94770367E88DEC32
:1028800096E00E942B0360E48DEC96E00E942B03FF
:10289000F12CF594E7946E2D8DEC96E00E942B03BD
:1028A00065E18DEC96E00E942B036FE68DEC96E0DF
:1028B0000E942B03C801880F991F192F1F77612FC2
:1028C0008DEC96E00E942B03F02EE894F7F86F2D24
:1028D0008DEC96E00E942B0301EF0D0D0F0D62E3CE
:1028E0008DEC96E00E942B036AE38DEC96E00E944B
:1028F0002B036AE38DEC96E00E942B03010F6D2DF4
:102900008DEC96E00E942B03602F6E0D61956F7722
:102910008DEC96E00E942B038AEA8093040264E621
:1029200070E080E090E00E94B7040E94B00341CACA
:102930000E94CC05182F0E94CC05212F30E02A518F
:102940003F4F820F932F911D8F779927892B01F588
:1029500010932A060E94CC05082F0E94CC05182F40
:102960000E94CC05402F410F5527551F840F952FEE
:10297000911D8F779927892BC1F08BEC91E00E94F4
:10298000770365ED74E08AE697E00E946207D1CE96
:102990008BEC91E00E94770365ED74E08AE697E0A6
:1029A0000E94620710922A06DDCE043B19F41093B0
:1029B0002B06D8CE033B19F410932C06D3CE013E40
:1029C00009F0D0CE10932D06CDCE8A3A09F0A7CFCC
:1029D00087E192E00E9477036AEA8DEC96E00E941C
:1029E0002B0360E18DEC96E00E942B0360E08DEC00
:1029F00096E00E942B0360E08DEC96E00E942B0392
:102A000060E08DEC96E00E942B0360E08DEC96E098
:102A10000E942B0360E48DEC96E00E942B0361E69C
:102A20008DEC96E00E942B03C801880F991F192F87
:102A30001F77612F8DEC96E00E942B030F77602F9C
:102A40008DEC96E00E942B036BE56F0D060F6F2D4A
:102A50008DEC96E00E942B03602F610F61956F77DC
:102A60008DEC96E00E942B0387E857CF80912806D3
:102A7000909129060196909329068093280680312B
:102A8000974208F452CF85E40E943D0461E0892B0F
:102A900009F060E085E40E94650410922906109216
:102AA000280643CFBB274A3031F4992322F4BDE2F4
:102AB000909581959F4F0BC04532510518F44230D7
:102AC00008F004C0FB011082CB010895BB27FB0175
:102AD0005527AA27880F991FAA1FA41710F0A41B17
:102AE00083955051B9F7A05DAA3308F0A95DA19371
:102AF000009779F7B111B1931192CB0100C0DC01BD
:102B0000FC01672F71917723E1F7329704C07C9124
:102B10006D9370836291AE17BF07C8F3089540D0DC
:102B200008F481E00895E89409C097FB3EF490957D
:102B30008095709561957F4F8F4F9F4F9923A9F096
:102B4000F92F96E9BB279395F69587957795679525
:102B5000B795F111F8CFFAF4BB0F11F460FF1BC069
:102B60006F5F7F4F8F4F9F4F16C0882311F096E9FC
:102B700011C0772321F09EE8872F762F05C06623AA
:102B800071F096E8862F70E060E02AF09A95660F63
:102B9000771F881FDAF7880F9695879597F908951C
:102BA000990F0008550FAA0BE0E8FEEF161617065E
:102BB000E807F907C0F012161306E407F50798F0C6
:102BC000621B730B840B950B39F40A2661F0232BDF
:102BD000242B252B21F408950A2609F4A140A6955B
:102BE0008FEF811D811D08950BD078C069D028F02A
:102BF0006ED018F0952309F05AC05FC01124A2C00E
:102C00007ED0A0F3959FD1F3950F50E0551F629FA2
:102C1000F001729FBB27F00DB11D639FAA27F00D35
:102C2000B11DAA1F649F6627B00DA11D661F829F5C
:102C30002227B00DA11D621F739FB00DA11D621F41
:102C4000839FA00D611D221F749F3327A00D611D5E
:102C5000231F849F600D211D822F762F6A2F112440
:102C60009F5750408AF0E1F088234AF0EE0FFF1F93
:102C7000BB1F661F771F881F91505040A9F79E3FCA
:102C8000510570F014C05EC05F3FECF3983EDCF37A
:102C9000869577956795B795F795E7959F5FC1F707
:102CA000FE2B880F911D9695879597F9089597F9B2
:102CB0009F6780E870E060E008959FEF80EC0895E2
:102CC00000240A941616170618060906089500240B
:102CD0000A9412161306140605060895092E039485
:102CE000000C11F4882352F0BB0F40F4BF2B11F4F9
:102CF00060FF04C06F5F7F4F8F4F9F4F089557FD58
:102D00009058440F551F59F05F3F71F04795880F59
:102D100097FB991F61F09F3F79F0879508951216F0
:102D200013061406551FF2CF4695F1DF08C016169C
:102D300017061806991FF1CF86957105610508944D
:102D40000895E894BB2766277727CB0197F9089564
:102D50005058BB27AA270ED0C1CFB2DF30F0B7DF63
:102D600020F031F49F3F11F41EF4A7CF0EF4E0954C
:102D7000E7FB9DCFE92FC3DF80F3BA176207730724
:102D80008407950718F071F49EF5DBCF0EF4E095FB
:102D90000B2EBA2FA02D0B01B90190010C01CA0115
:102DA000A0011124FF27591B99F0593F50F4503EC0
:102DB00068F11A16F040A22F232F342F4427585FB2
:102DC000F3CF469537952795A795F0405395C9F7CA
:102DD0007EF41F16BA0B620B730B840BBAF0915082
:102DE000A1F0FF0FBB1F661F771F881FC2F70EC021
:102DF000BA0F621F731F841F48F4879577956795F4
:102E0000B795F7959E3F08F0B3CF9395880F08F0DC
:102E10009927EE0F9795879508950CD05FCF57DFD0
:102E200040F04EDF30F021F45F3F19F040CF5111F8
:102E300089CF43CF64DF98F39923C9F35523B1F3C6
:102E4000951B550BBB27AA2762177307840738F019
:102E50009F5F5F4F220F331F441FAA1FA9F333D078
:102E60000E2E3AF0E0E830D091505040E695001C2C
:102E7000CAF729D0FE2F27D0660F771F881FBB1FE8
:102E8000261737074807AB07B0E809F0BB0B802DC2
:102E9000BF01FF2793585F4F2AF09E3F510568F00E
:102EA00006CF50CF5F3FECF3983EDCF386957795E5
:102EB0006795B795F7959F5FC9F7880F911D969510
:102EC000879597F90895E1E0660F771F881FBB1F6C
:102ED000621773078407BA0720F0621B730B840B19
:102EE000BA0BEE1F88F7E095089504D06894B111ED
:102EF00029CF08950CDF88F09F5790F0B92F9927BC
:102F0000B751A0F0D1F0660F771F881F991F1AF0F4
:102F1000BA95C9F712C0B13081F013DFB1E008955E
:102F200010CF672F782F8827B85F39F0B93FCCF3DF
:102F3000869577956795B395D9F73EF490958095EA
:102F4000709561957F4F8F4F9F4F089529DE08F44C
:102F50008FEF089525DE880B990B0895A1E21A2EB4
:102F6000AA1BBB1BFD010DC0AA1FBB1FEE1FFF1F2D
:102F7000A217B307E407F50720F0A21BB30BE40B7D
:102F8000F50B661F771F881F991F1A9469F76095C4
:102F90007095809590959B01AC01BD01CF0108957E
:102FA000EE0FFF1F881F8BBF0790F691E02D19943D
:102FB0000F931F93CF93DF938230910510F482E03B
:102FC00090E0E0912108F091220830E020E0B0E0AC
:102FD000A0E0309799F42115310509F44AC0281B67
:102FE000390B24303105D8F58A819B816115710533
:102FF00089F1FB0193838283FE0111C040815181DD
:103000000281138148175907E0F04817590799F4CE
:10301000109761F012960C93129713961C933296A8
:10302000CF01DF91CF911F910F9108950093210857
:1030300010932208F4CF2115310551F042175307A0
:1030400038F0A901DB019A01BD01DF01F801C1CF10
:10305000EF01F9CF9093220880932108CDCFFE0194
:10306000E20FF31F81939193225031093983288312
:10307000D7CF20911F0830912008232B41F42091B5
:103080000702309108023093200820931F082091F6
:103090000502309106022115310541F42DB73EB7E6
:1030A0004091090250910A02241B350BE0911F0840
:1030B000F0912008E217F307A0F42E1B3F0B28170E
:1030C000390778F0AC014E5F5F4F2417350748F0A1
:1030D0004E0F5F1F5093200840931F0881939193D8
:1030E0009FCFF0E0E0E09CCFCF93DF930097E9F033
:1030F000FC01329713821282A0912108B09122081C
:10310000ED0130E020E01097A1F420813181820FA1
:10311000931F20911F08309120082817390709F0C4
:1031200061C0F0932008E0931F08DF91CF910895CC
:10313000EA01CE17DF07E8F54A815B819E01411560
:103140005105B1F7E901FB83EA8349915991C40F15
:10315000D51FEC17FD0761F4808191810296840FE1
:10316000951FE90199838883828193819B838A8358
:10317000F0E0E0E012968D919C9113970097B9F5DD
:103180002D913C911197CD010296820F931F2091B2
:103190001F08309120082817390739F6309751F564
:1031A0001092220810922108B0932008A0931F08C3
:1031B000BCCFD383C28340815181840F951FC81730
:1031C000D90761F44E5F5F4F88819981480F591F7D
:1031D000518340838A819B819383828321153105AA
:1031E00009F0B0CFF0932208E09321089ECFFD01B3
:1031F000DC01C0CF13821282D7CF4F925F926F92C1
:103200007F928F929F92AF92BF92CF92DF92EF9276
:10321000FF920F931F93CF93DF938C01009791F44C
:10322000CB01DF91CF911F910F91FF90EF90DF9035
:10323000CF90BF90AF909F908F907F906F905F9056
:103240004F90B6CEFC01E60FF71F9C0122503109CA
:10325000E217F30708F4AAC0D901CD91DC911197C8
:10326000C617D70718F1C530D10570F0CE01049705
:103270008617970748F0C61BD70B2297C193D193A7
:103280006D937C93CF0130DFC801DF91CF911F9107
:103290000F91FF90EF90DF90CF90BF90AF909F90F5
:1032A0008F907F906F905F904F9008955B01AC1A64
:1032B000BD0A4C018C0E9D1EA0912108B0912208E0
:1032C000512C412CF12CE12C109731F580911F08E5
:1032D000909120088815990509F05CC0461657069C
:1032E00008F058C08091050290910602009741F4C1
:1032F0008DB79EB74091090250910A02841B950B2D
:10330000E817F90708F052C0F0932008E0931F086F
:10331000F90171836083B8CF8D919C9111971296BA
:103320006C90129713967C901397A815B90559F5D0
:103330006C0142E0C40ED11CCA14DB0420F1AC01C4
:103340004A195B09DA011296159780F0628273823E
:1033500051834083D9016D937C93E114F10471F0A2
:10336000D7011396FC93EE9312978ECF22968C0F73
:103370009D1FF90191838083F301EFCFF093220821
:10338000E093210881CF4816590608F42C017D01ED
:10339000D3019ACFCB010CDE7C01009739F0AE014E
:1033A000B80107D0C801A0DE87016ECF10E000E0B1
:1033B0006BCFFB01DC0102C001900D9241505040E7
:1033C000D8F70895FB01DC0101900D920020E1F790
:0633D0000895F894FFCF00
:1033D60001FFFF0187000023088000000040001461
:1033E600005400000099C5ABCE320BCFD8561D64F1
:1033F60016FDD307F49E31AC3A35FFC82C51E9636C
:10340600E2FA2797AD0E683C63A5A65875C1B0F3DE
:10341600BB6A7E9059099C3B97A2525F81C644F4D1
:103426004F6D8A2E5BB79E85951C50E18378464A80
:103436004DD38829AFB06A82611BA4E6777FB24D6F
:10344600B9D47CB9F6203312388BFD762EEFEBDD3E
:10345600E04425BE0227C715CC8C0971DAE81FDACD
:103466001443D1C5F35C366E3DF7F80A2B93EEA1F3
:10347600E53820C2075BC269C9F00C0DDF941AA6B5
:10348600113FD4525ECB9BF99060559D860443361E
:1034960048AF8D55AACC6FFE6467A19A7203B73107
:1034A600BCA879EBA8726D4066D9A32470BDB58F10
:1034B600BE167BEC5C75994792DE572384BA418829
:1034C6004A118F7C05E5C0D7CB4E0EB3DD2A1818FE
:1034D6001381D67BF1E234D03F49FAB4292DEC1F93
:1034E600E7862213A28A67B86C21A9DC7A45BF77E2
:1034F600B4EE7114568D93BF98265DDB8E424B70E9
:1035060040E985840F1DCA2FC1B6044BD7D212E0FD
:103516001979DC83FB1A3E2835B1F04C23D5E6E752
:10352600ED7E283DF9A43C96370FF2F2216BE45963
:10353600EFC02A3A0DA3C891C30806F5D56C105EF4
:103546001BC7DEAA543391019A985F658CFC49CE5D
:10355600425787ADA03465066E9FAB6278FBBDC946
:10356600B65073D6514F947D9FE45A1989804CB258
:10357600472B82D1A548607A6BE3AE1E7D87B8B52E
:10358600B32C7641FCD839EA3273F78E2417E1253D
:10359600EABC2F4608DFCDEDC6740389D01015228C
:1035A6001EBBDBF80A61CF53C4CA0137D2AE179CE3
:1035B6001C05D9FFFE663B5430CDF53026A9E39BAA
:1035C600E8022D6FA7F662C4695DACA07F39BA0B1D
:1035D600B192746853F196C39D5A58A78B3E4E0C10
:1035E600459580000000002B0313026102910392AF
:1035F6000270028402000000009E057205B00648B3
:10360600056B05580549050000000043071302B085
:1036160006AF066E616E00696E66006F7666002004
:10362600202020202020202020202020000A477251
:1036360069642043686172676572204469736162D8
:103646006C65640068693A0020286D61783A002943
:10365600006C6F3A0020286D696E3A00643A000AE1
:1036660069736F53504920636F6E73656375746930
:103676007665206572726F72733A20002C2063752E
:103686006D756C6174697665206572726F72733AD6
:1036960020002C20567061636B3A006572726F725F
:1036A600733A0028000D0A000A4D45545343492039
:1036B60045363A20002C2042333A20002C20423452
:0A36C6003A20002C2045313A200084
:020000023000CC
:10E000000D9489F10D94B2F10D94B2F10D94B2F129
:10E010000D94B2F10D94B2F10D94B2F10D94B2F1F0
:10E020000D94B2F10D94B2F10D94B2F10D94B2F1E0
:10E030000D94B2F10D94B2F10D94B2F10D94B2F1D0
:10E040000D94B2F10D94B2F10D94B2F10D94B2F1C0
:10E050000D94B2F10D94B2F10D94B2F10D94B2F1B0
:10E060000D94B2F10D94B2F10D94B2F10D94B2F1A0
:10E070000D94B2F10D94B2F10D94B2F10D94B2F190
:10E080000D94B2F10D94B2F10D94B2F10D94B2F180
:10E090000D94B2F10D94B2F10D94B2F10D94B2F170
:10E0A0000D94B2F10D94B2F10D94B2F10D94B2F160
:10E0B0000D94B2F10D94B2F10D94B2F10D94B2F150
:10E0C0000D94B2F10D94B2F10D94B2F10D94B2F140
:10E0D0000D94B2F10D94B2F10D94B2F10D94B2F130
:10E0E0000D94B2F141546D656761323536300041AF
:10E0F000726475696E6F206578706C6F72657220DE
:10E1000073746B3530305632206279204D4C530099
:10E11000426F6F746C6F616465723E004875683F52
:10E1200000436F6D70696C6564206F6E203D200048
:10E130004350552054797065202020203D20005FF9
:10E140005F4156525F415243485F5F3D2000415658
:10E1500052204C696243205665723D20004743437C
:10E160002056657273696F6E203D20004350552024
:10E1700049442020202020203D20004C6F7720663D
:10E18000757365202020203D20004869676820665F
:10E190007573652020203D200045787420667573D6
:10E1A00065202020203D20004C6F636B2066757336
:10E1B000652020203D20004D617220203720323024
:10E1C000313300312E362E3800342E332E350056A2
:10E1D00023202020414444522020206F7020636F70
:10E1E00064652020202020696E73747275637469E1
:10E1F0006F6E2061646472202020496E74657272B3
:10E20000757074006E6F20766563746F7200726A49
:10E210006D702020006A6D70200057686174207056
:10E220006F72743A00506F7274206E6F7420737541
:10E2300070706F72746564004D7573742062652030
:10E2400061206C6574746572002000577269747483
:10E25000696E672045450052656164696E672045B7
:10E26000450045452065727220636E743D00504F35
:10E27000525400303D5A65726F2061646472003FF1
:10E280003D43505520737461747300403D454550C3
:10E29000524F4D207465737400423D426C696E6B41
:10E2A000204C454400453D44756D70204545505215
:10E2B0004F4D00463D44756D7020464C415348001B
:10E2C000483D48656C70004C3D4C69737420492F83
:10E2D0004F20506F72747300513D51756974005234
:10E2E0003D44756D702052414D00563D73686F7707
:10E2F00020696E7465727275707420566563746FF0
:10E30000727300593D506F727420626C696E6B00BD
:10E310002A0011241FBECFEFD1E2DEBFCDBF01E046
:10E320000CBF12E0A0E0B2E0EEE1FDEF03E00BBFB6
:10E3300002C007900D92A030B107D9F712E0A0E01B
:10E34000B2E001C01D92AE30B107E1F70F9460F367
:10E350000D948DFE01E20EBF0FEF0DBF11241FBE05
:10E360000D9460F30D9400F020E030E040ED57E0B4
:10E3700005C0FA013197F1F72F5F3F4F2817390792
:10E38000C0F308959C01260F311DC901A0E0B0E043
:10E390002F5F3F4FABBFFC018791882361F08093D3
:10E3A000C6008091C00086FFFCCF8091C0008064D1
:10E3B0008093C000EACF08958DE08093C6008091DD
:10E3C000C00086FFFCCF8091C00080648093C000B5
:10E3D0008AE08093C6008091C00086FFFCCF8091C8
:10E3E000C00080648093C00008950F94C2F10F9420
:10E3F000DCF10895FC019081992359F09093C600B7
:10E400008091C00086FFFCCF8091C0008064809323
:10E41000C0003196992379F70895282F982F929567
:10E420009F70892F805D8A3308F0895F8093C600D2
:10E430008091C00086FFFCCF8091C00080648093F3
:10E44000C000822F8F70982F905D9A3308F0995FEB
:10E450009093C6008091C00086FFFCCF8091C000E1
:10E4600080648093C00008959C01FB01853691056E
:10E470001CF46330710594F0C90164E670E00F94F8
:10E480002EFE605D7F4F6093C6008091C00086FFC6
:10E49000FCCF8091C00080648093C0002B30310598
:10E4A00014F43297B4F0C90164E670E00F942EFEC4
:10E4B0006AE070E00F942EFE605D7F4F6093C600AF
:10E4C0008091C00086FFFCCF8091C0008064809363
:10E4D000C000C9016AE070E00F942EFEC0968093E0
:10E4E000C6008091C00086FFFCCF8091C000806490
:10E4F0008093C00008951F93182F8EE692EE60E07F
:10E500000F94C2F11093C6008091C00086FFFCCF2B
:10E510008091C00080648093C0000F94DCF11F9153
:10E5200008952F923F924F925F926F927F928F92B7
:10E530009F92AF92BF92CF92DF92EF92FF920F9392
:10E540001F93DF93CF93CDB7DEB762970FB6F894E2
:10E55000DEBF0FBECDBF382E622ECA01DB015C01CB
:10E560006D01772420E2222E2E010894411C511CBB
:10E570008BC081E0A81680E0B80681E0C80680E084
:10E58000D80628F0C601AA27BB270F940DF2BB2797
:10E59000AD2D9C2D8B2D0F940DF28A2D0F940DF225
:10E5A0002092C6008091C00086FFFCCF8091C00001
:10E5B00080648093C0009DE29093C6008091C0006B
:10E5C00086FFFCCF8091C00080648093C0002092C1
:10E5D000C6008091C00086FFFCCF8091C00080649F
:10E5E0008093C00019828601750188249924A1E0D6
:10E5F0003A1651F03A1620F0B2E03B1661F409C029
:10E600000BBFF701779007C0C7010F9477FE782EF4
:10E6100002C0F7017080872D0F940DF22092C60082
:10E620008091C00086FFFCCF8091C0008064809301
:10E63000C000872D8052F401EF70F0708F3520F408
:10E64000E40DF51D708204C0E40DF51D8EE280839B
:10E650000894E11CF11C011D111D0894811C911CE2
:10E6600090E18916910409F0C2CF80E190E0A0E02A
:10E67000B0E0A80EB91ECA1EDB1E198AC2010F9493
:10E68000FAF10F94DCF16A94662009F072CF629679
:10E690000FB6F894DEBF0FBECDBFCF91DF911F91B3
:10E6A0000F91FF90EF90DF90CF90BF90AF909F9031
:10E6B0008F907F906F905F904F903F902F90089534
:10E6C0002F923F924F925F926F927F928F929F9282
:10E6D000AF92BF92CF92DF92EF92FF920F931F9370
:10E6E000DF93CF93CDB7DEB7CD53D1400FB6F894BB
:10E6F000DEBF0FBECDBF01E20EBF0FEF0DBF94B75F
:10E70000F894A89514BE80916000886180936000A1
:10E7100010926000789493FF05C0E0910002F091A0
:10E7200001021995279A2F9A8091C00082608093E8
:10E73000C00080E18093C40088E18093C1000000A4
:10E74000EE24FF24870144E0A42EB12CCC24DD2448
:10E7500024C0C5010197F1F70894E11CF11C011DCB
:10E76000111D21E2E2162EE4F20620E0020720E06D
:10E77000120718F031E0C32ED12CC801B70127ECE5
:10E780003BE140E050E00F9441FE611571058105C9
:10E79000910519F485B1805885B98091C00087FD35
:10E7A00003C0C114D104A9F2A6014F5F5F4FC25E3E
:10E7B000DE4F59834883CE51D140C25EDE4F8881FF
:10E7C0009981CE51D140019711F00D9410FEC05D9A
:10E7D000DE4F19821882C053D14060E0C15DDE4F28
:10E7E0001882CF52D14088249924C35DDE4F19820C
:10E7F0001882CD52D140C05EDE4F188219821A8233
:10E800001B82C052D140CE5CDE4F188219821A8220
:10E810001B82C253D140EE24FF2487010BBFF701B6
:10E8200007911691C45CDE4F19830883CC53D14005
:10E830000D940BFEC25EDE4F28813981CE51D1404E
:10E840002130310509F52091C600C25EDE4F1982E4
:10E850001882CE51D14022C02F5F3F4F4F4F5F4FA4
:10E86000213082E138078AE7480780E0580780F0C6
:10E87000C45CDE4FE881F981CC53D140EF5FFF4F9C
:10E8800019F0EE27FF27099420E030E040E050E047
:10E890008091C00087FFE0CF2091C600C35DDE4FAE
:10E8A00048815981CD52D1404F5F5F4FC35DDE4FEC
:10E8B00059834883CD52D140213209F063C64A3092
:10E8C000510508F05FC60894811C911C53E0851621
:10E8D000910409F059C600E010E018C081E280936D
:10E8E000C6008091C00086FFFCCF8091C00080648C
:10E8F0008093C0002F5F3F4F2931310579F70F9486
:10E90000DCF10F5F1F4F0530110519F020E030E0FA
:10E91000E5CF10920A0210920B0210920C02109294
:10E920000D02109206021092070210920802109235
:10E930000902109202021092030210920402109235
:10E9400005028FEE90EE60E00F94F5F180E191EE1C
:10E9500060E00F94C2F18091C00087FFFCCF9091DE
:10E96000C600903608F09F759032B8F09093C600BC
:10E970008091C00086FFFCCF8091C00080648093AE
:10E98000C000A0E2A093C6008091C00086FFFCCF2B
:10E990008091C00080648093C000983409F4D7C18E
:10E9A0009934B8F4923409F459C1933458F490333B
:10E9B00019F1903308F4E3C59F33A1F1903409F0C5
:10E9C000DEC5BDC0953409F470C1963409F0D7C5D1
:10E9D00098C1923509F42BC2933538F49C3409F46C
:10E9E000F5C1913509F0CBC518C2963509F445C279
:10E9F000993509F0C4C567C483E792EE62E00F94CD
:10EA0000F5F110920602109207021092080210927D
:10EA1000090210920A0210920B0210920C0210923C
:10EA20000D0213C18FE792EE62E00F94F5F18FEEC5
:10EA300090EE60E00F94F5F181E291EE60E00F94CA
:10EA4000C2F187EB91EE60E00F94F5F180E391EE77
:10EA500060E00F94C2F184EE90EE60E00F94F5F167
:10EA60008FE391EE60E00F94C2F186E090E061E008
:10EA700070E00F9434F20F94DCF18DE591EE60E0DC
:10EA80000F94C2F189EC91EE60E00F94F5F18EE401
:10EA900091EE60E00F94C2F183EC91EE60E00F9490
:10EAA000F5F18CE691EE60E00F94C2F18EE10F94E7
:10EAB0000DF288E90F940DF281E00F940DF20F949E
:10EAC000DCF18BE791EE60E00F94C2F119E0E0E039
:10EAD000F0E010935700E4918E2F0F940DF20F94F5
:10EAE000DCF18AE891EE60E00F94C2F1E3E0F0E03F
:10EAF00010935700E4918E2F0F940DF20F94DCF1D8
:10EB000089E991EE60E00F94C2F1E2E0F0E0109349
:10EB10005700E4918E2F0F940DF20F94DCF188EAE8
:10EB200091EE60E00F94C2F1E1E0F0E01093570045
:10EB30001491812F0F940DF20F94DCF107CF8BE825
:10EB400092EE62E00F94F5F18BE492EE60E00F94A8
:10EB5000F5F10F94DCF100E010E019C0C8016F2D51
:10EB60000F947FFEFF2031F489E492EE60E00F9471
:10EB7000C2F10BC0F092C6008091C00086FFFCCFAE
:10EB80008091C00080648093C0000F5F1F4FC80158
:10EB900081519F41A0E0B0E0ABBFFC01F790BAE229
:10EBA000FB1621F0E2E000301E07C1F60F94DCF105
:10EBB0000F94DCF187E592EE60E00F94F5F10F948D
:10EBC000DCF1CC24DD2400E010E01EC0C8010F946D
:10EBD00077FEF82E882331F489E492EE60E00F94FA
:10EBE000C2F10BC08093C6008091C00086FFFCCFAD
:10EBF0008091C00080648093C000FE1419F00894D6
:10EC0000C11CD11C0F5F1F4FC80181519F41A0E063
:10EC1000B0E0ABBFFC01E790FAE2EF1621F022E092
:10EC20000030120799F60F94DCF10F94DCF182E6C4
:10EC300092EE60E00F94C2F1C60161E070E00F94C3
:10EC400034F20F94DCF10F94DCF110920202109276
:10EC50000302109204021092050278CE89E992EE26
:10EC600062E00F94F5F1279A2F9A16C02F9880E052
:10EC700090E0E0EDF7E03197F1F7019684369105E9
:10EC8000C1F72F9A80E090E0E0EDF7E03197F1F7DF
:10EC9000019684369105C1F78091C00087FFE6CFC9
:10ECA0008091C00087FFFCCF64C485EA92EE62E0E9
:10ECB0000F94F5F140910202509103026091040219
:10ECC0007091050281E020E10F9491F2809102029F
:10ECD00090910302A0910402B091050280509F4FD1
:10ECE000AF4FBF4F8093020290930302A0930402A0
:10ECF000B093050280509041A040B04008F426CE69
:10ED0000A4CF83EB92EE62E00F94F5F140910602FE
:10ED100050910702609108027091090280E020E1A1
:10ED20000F9491F28091060290910702A09108023F
:10ED3000B091090280509F4FAF4FBF4F80930602A2
:10ED400090930702A0930802B0930902FFCD80ECD4
:10ED500092EE62E00F94F5F183E792EE60E00F949B
:10ED6000F5F18FE792EE60E00F94F5F18BE892EE0B
:10ED700060E00F94F5F189E992EE60E00F94F5F10F
:10ED800085EA92EE60E00F94F5F183EB92EE60E09D
:10ED90000F94F5F180EC92EE60E00F94F5F187ECC2
:10EDA00092EE60E00F94F5F188ED92EE60E00F9442
:10EDB000F5F18FED92EE60E00F94F5F18AEE92EEB0
:10EDC00060E00F94F5F183E093EEBDCD87EC92EE19
:10EDD00062E00F94F5F181E40F947BF282E40F94EA
:10EDE0007BF283E40F947BF284E40F947BF285E45E
:10EDF0000F947BF286E40F947BF287E40F947BF20E
:10EE000088E40F947BF28AE40F947BF28BE40F94F6
:10EE10007BF28CE40F947BF299CD88ED92EE62E068
:10EE20000F94F5F1772473948824992409C48FED05
:10EE300092EE62E00F94F5F140910A0250910B02BC
:10EE400060910C0270910D0282E020E10F9491F22A
:10EE500080910A0290910B02A0910C02B0910D02D8
:10EE600080509F4FAF4FBF4F80930A0290930B0289
:10EE7000A0930C02B0930D0269CD8AEE92EE62E08F
:10EE80000F94F5F184EE90EE60E00F94F5F18FECC5
:10EE900091EE60E00F94F5F1662477244301CC5D98
:10EEA000DE4F19821882C452D140D401C301B695F5
:10EEB000A79597958795CA5DDE4F88839983AA8326
:10EEC000BB83C652D140CC5DDE4FA881B981C4520C
:10EED000D1401196CC5DDE4FB983A883C452D14096
:10EEE000CD0162E070E00F9434F2B0E2B093C6005E
:10EEF0008091C00086FFFCCF8091C0008064809329
:10EF0000C000EDE2E093C6008091C00086FFFCCF18
:10EF10008091C00080648093C000F0E2F093C6004E
:10EF20008091C00086FFFCCF8091C00080648093F8
:10EF3000C000CA5DDE4FE880F9800A811B81C6529D
:10EF4000D140BB27A12F902F8F2D0F940DF2CA5DBA
:10EF5000DE4F8881C652D1400F940DF2B0E2FB2EF5
:10EF6000F092C6008091C00086FFFCCF8091C00067
:10EF700080648093C0000DE30093C6008091C000C0
:10EF800086FFFCCF8091C00080648093C00010E2B7
:10EF90001093C6008091C00086FFFCCF8091C00016
:10EFA00080648093C0008BBEF3012791C65DDE4F65
:10EFB0002883CA52D140A22EBB24CC24DD2408943D
:10EFC000611C711C811C911C8BBEF3018791282E42
:10EFD0003324442455240894611C711C811C911C09
:10EFE0008BBEF3013791C55DDE4F3883CB52D140E4
:10EFF0000894611C711C811C911C8BBEF30147910C
:10F00000C45DDE4F4883CC52D140ADEFEA2EAFEF66
:10F01000FA2EAFEF0A2FAFEF1A2F6E0C7F1C801E57
:10F02000911E142D032DF22CEE24EA0CFB1C0C1D5A
:10F030001D1D0F940DF220E22093C6008091C000A8
:10F0400086FFFCCF8091C00080648093C000C65DC5
:10F05000DE4F8881CA52D1400F940DF230E23093D6
:10F06000C6008091C00086FFFCCF8091C000806404
:10F070008093C000C45DDE4F8881CC52D1400F9494
:10F080000DF240E24093C6008091C00086FFFCCFA5
:10F090008091C00080648093C000C55DDE4F888190
:10F0A000CB52D1400F940DF250E25093C6008091A4
:10F0B000C00086FFFCCF8091C00080648093C000B8
:10F0C0008FEFE8168FEFF80680E0080780E018075A
:10F0D00031F484E092EE60E00F94C2F1DFC0D80119
:10F0E000C7018070907CA070B0708050904CA040A0
:10F0F000B040D1F52FEF3FE340E050E0E222F322B1
:10F1000004231523CA5DDE4FA880B980CA80DB8046
:10F11000C652D140AE0CBF1CC01ED11EAA0CBB1CD7
:10F12000CC1CDD1C8EE092EE60E00F94C2F1BB2798
:10F13000A12F902F8F2D0F940DF28E2D0F940DF285
:10F1400030E23093C6008091C00086FFFCCF8091F2
:10F15000C00080648093C0004EE34093C60080915D
:10F16000C00086FFFCCF87C08EE09EEFA0E0B0E03D
:10F17000E822F9220A231B239CE0E91694E9F90608
:10F1800090E0090790E0190709F088C0C45DDE4FE0
:10F19000A881CC52D140EA2EFF2400E010E0102FCD
:10F1A0000F2DFE2CEE24C55DDE4FB881CB52D14031
:10F1B000EB0EF11C011D111DD601C501817090706F
:10F1C000A070B070DC0199278827E80EF91E0A1F8D
:10F1D0001B1F20EF30E040E050E0A222B322C42207
:10F1E000D52241E1AA0CBB1CCC1CDD1C4A95D1F7F1
:10F1F000EA0CFB1C0C1D1D1D81E090E0A0E0B0E0BE
:10F20000282239224A225B2235E1220C331C441C7D
:10F21000551C3A95D1F7E20CF31C041D151D57013E
:10F220006801AA0CBB1CCC1CDD1C85E192EE60E0E1
:10F230000F94C2F1C801AA27BB270F940DF2BB2778
:10F24000A12F902F8F2D0F940DF28E2D0F940DF274
:10F2500090E29093C6008091C00086FFFCCF809121
:10F26000C00080648093C000AEE3A093C60080918C
:10F27000C00086FFFCCF8091C00080648093C000F6
:10F28000C601AA27BB270F940DF2BB27AD2D9C2DDD
:10F290008B2D0F940DF28A2D0F940DF20F94DCF14B
:10F2A000CC5DDE4FE881F981C452D140F99709F471
:10F2B0004DCBF4E0EF2EF12C012D112D6E0C7F1CA7
:10F2C000801E911EF2CD83E093EE62E00F94F5F183
:10F2D0008AE192EE60E00F94C2F18091C00087FF56
:10F2E000FCCF1091C6001F751093C6008091C0001E
:10F2F00086FFFCCF8091C00080648093C0000F9493
:10F30000DCF1812F81548A3108F036C1163409F4BA
:10F3100095C0173490F4133409F44EC0143430F40B
:10F320001134F1F0123409F01DC130C0143409F465
:10F3300059C0153409F016C16BC01A3409F4C4C0A1
:10F340001B3438F4173409F48FC0183409F00AC19B
:10F35000A1C01B3409F4D2C01C3409F003C1E8C0B9
:10F360008FEF81B90DC082B1809582B980E090E0C5
:10F37000E0EDF7E03197F1F70196883C9105C1F790
:10F380008091C00087FFEFCF12B8EFC08FEF84B934
:10F390000DC085B1809585B980E090E0E0EDF7E0A3
:10F3A0003197F1F70196883C9105C1F78091C00033
:10F3B00087FFEFCF15B8D9C08FEF87B90DC088B1DF
:10F3C000809588B980E090E0E0EDF7E03197F1F7C3
:10F3D0000196883C9105C1F78091C00087FFEFCF6F
:10F3E00018B8C3C08FEF8AB90DC08BB180958BB9A7
:10F3F00080E090E0E0EDF7E03197F1F70196883C8E
:10F400009105C1F78091C00087FFEFCF1BB8ADC059
:10F410008FEF8DB90DC08EB180958EB980E090E0F0
:10F42000E0EDF7E03197F1F70196883C9105C1F7DF
:10F430008091C00087FFEFCF1EB897C08FEF80BBD1
:10F440000DC081B3809581BB80E090E0E0EDF7E0F6
:10F450003197F1F70196883C9105C1F78091C00082
:10F4600087FFEFCF11BA81C08FEF83BB0DC084B38C
:10F47000809584BB80E090E0E0EDF7E03197F1F714
:10F480000196883C9105C1F78091C00087FFEFCFBE
:10F4900014BA6BC08FEF809301010FC080910201FD
:10F4A00080958093020180E090E0E0EDF7E03197F5
:10F4B000F1F70196883C9105C1F78091C00087FF64
:10F4C000EDCF1092020151C08FEF809304010FC065
:10F4D0008091050180958093050180E090E0E0ED4A
:10F4E000F7E03197F1F70196883C9105C1F78091DB
:10F4F000C00087FFEDCF1092050137C08FEF8093DA
:10F5000007010FC08091080180958093080180E079
:10F5100090E0E0EDF7E03197F1F70196883C910536
:10F52000C1F78091C00087FFEDCF109208011DC088
:10F530008FEF80930A010FC080910B01809580931B
:10F540000B0180E090E0E0EDF7E03197F1F70196F4
:10F55000883C9105C1F78091C00087FFEDCF1092E4
:10F560000B0103C085E292EEEEC98091C00087FFD7
:10F57000FCCF8091C600EAC988E392EEE4C98CE131
:10F5800091EEE1C988249924933011F1943028F444
:10F59000913089F09230B8F408C0953061F195301F
:10F5A000F0F0963009F048C043C02B3109F042C951
:10F5B00091E06BE13FC96227C15DDE4F2883CF52E6
:10F5C000D14092E037C9B22FA0E0622793E032C960
:10F5D000822F90E0A82BB92B622794E02BC92E3004
:10F5E00009F039C3622795E0C05DDE4F19821882A9
:10F5F000C053D1401FC9E1E0F0E0EC0FFD1FC05D3A
:10F60000DE4F08811981C053D140E00FF11F2083E4
:10F610000F5F1F4FC05DDE4F19830883C053D14079
:10F6200062270A171B0709F005C9D80196E002C92D
:10F63000261709F010C303C0973009F0FBC87724E0
:10F640009981933109F412C19431C8F4963009F4C8
:10F65000D8C0973050F4923009F406C1933009F4C1
:10F660006DC0913009F059C253C0913109F477C08F
:10F67000923108F0BBC0903109F04FC2F5C098310B
:10F6800009F487C0993150F4953109F4EFC09531F0
:10F6900008F4C6C1963109F040C2C2C19A3109F4DA
:10F6A0006CC09A3108F491C09B3109F45BC09D3164
:10F6B00009F033C29D81903359F48F81882311F46E
:10F6C0009EE11CC0813011F091E018C098E916C08D
:10F6D000892F807591F0903539F4E0E0F0E089E011
:10F6E0008093570094910AC0983539F4E3E0F0E034
:10F6F00089E080935700949101C090E01A821B82A8
:10F700008D818C831D829E831F8227E030E009C299
:10F710001A8288E08B8381E48C8386E58D8382E581
:10F720008E8389E48F8383E5888780E589878FE5E9
:10F730008A8782E38B872BE030E0F3C18A818139AD
:10F7400041F0823941F0803911F48FE005C080E04A
:10F7500003C082E001C08AE01A828B8344C0772410
:10F76000739482C08D81882311F48EE12CC0813086
:10F7700011F081E028C088E926C01A82E1E0F0E0BB
:10F7800089E08093570084918B831C8224E030E0D1
:10F79000C8C18B81803589F48C81883039F4E2E0EE
:10F7A000F0E089E08093570084910DC0E0E0F0E044
:10F7B00089E080935700849106C0E3E0F0E089E09F
:10F7C0008093570084911A82DFCF8D81836C99E0FA
:10F7D000E1E0F0E0082E90935700E89507B600FCB2
:10F7E000FDCF1A821B8223E030E09BC180EC8A832C
:10F7F000CE5CDE4F188219821A821B82C253D1401E
:10F800008EC18A8190E0A0E0B0E0582F44273327D2
:10F8100022278B8190E0A0E0B0E0DC0199278827C7
:10F82000282B392B4A2B5B2B8D8190E0A0E0B0E098
:10F83000282B392B4A2B5B2B8C8190E0A0E0B0E089
:10F84000BA2FA92F982F8827282B392B4A2B5B2BCF
:10F85000220F331F441F551FC05EDE4F288339839C
:10F860004A835B83C052D1401A8259C13A81C95C34
:10F87000DE4F3883C753D140CA5CDE4F1882C6536F
:10F88000D1408B81C82EDD24CA5CDE4F488159816E
:10F89000C653D140C42AD52A933109F082C0CE5C28
:10F8A000DE4F88819981AA81BB81C253D1408050AB
:10F8B000904CA340B04030F583E0CE5CDE4FE88052
:10F8C000F9800A811B81C253D140F70100935B008C
:10F8D00080935700E89507B600FCFDCFCE5CDE4F65
:10F8E000088119812A813B81C253D14000501F4FAA
:10F8F0002F4F3F4FCE5CDE4F088319832A833B8313
:10F90000C253D140C05EDE4F488159816A817B81FC
:10F91000C052D140DE011B9631E08C9111962C91A2
:10F9200011971296C75CDE4F2883C953D140C85C3B
:10F93000DE4F1882C853D14090E0C85CDE4FE881AA
:10F94000F981C853D1408E2B9F2B0C01FA01609393
:10F950005B0030935700E89511244E5F5F4F6F4F67
:10F960007F4F0EEFE02E0FEFF02ECE0CDF1CC114F8
:10F97000D10499F685E0C05EDE4F088119812A81A5
:10F980003B81C052D140F80120935B008093570027
:10F99000E89507B600FCFDCF81E180935700E8951C
:10F9A00035C0C05EDE4F88819981AA81BB81C0527B
:10F9B000D140B695A795979587957C018601ABE0D8
:10F9C000AA2EB12CAC0EBD1E0BC0D5016D915D01F0
:10F9D000C7010F947FFE0894E11CF11C01501040F8
:10F9E0000115110591F7A60160E070E0440F551F65
:10F9F000661F771FC05EDE4FE880F9800A811B8199
:10FA0000C052D1404E0D5F1D601F711F1A82C05E33
:10FA1000DE4F488359836A837B83C052D1407FC0C5
:10FA2000FA80C55CDE4FF882CB53D140C65CDE4F16
:10FA30001882CA53D1408B81C82EDD24C65CDE4FAC
:10FA400008811981CA53D140C02AD12A1A828981DA
:10FA5000BE016D5F7F4F843121F59601C05EDE4FA0
:10FA6000E880F9800A811B81C052D1400BBFF701A9
:10FA700087919691DB018C9311969C936E5F7F4FDB
:10FA8000D801C7010296A11DB11DC05EDE4F88835B
:10FA90009983AA83BB83C052D14022503040F1F6F3
:10FAA00036C0C05EDE4F288139814A815B81C052F9
:10FAB000D1400894C108D108760100E010E0089414
:10FAC000C11CD11C0894E11CF11C011D111DE20E8A
:10FAD000F31E041F151F21BDBB27A52F942F832FB5
:10FAE00082BD2F5F3F4F4F4F5F4FF89A80B5DB01CC
:10FAF0008D93BD012E153F054007510761F7C05E8C
:10FB0000DE4F288339834A835B83C052D1409601FC
:10FB10002D5F3F4FFB01108204C080EC8A8322E0FE
:10FB200030E08BE18093C6008091C00086FFFCCF5F
:10FB30008091C00080648093C000C15DDE4FF88179
:10FB4000CF52D140F093C6008091C00086FFFCCF19
:10FB50008091C00080648093C000432F3093C60022
:10FB60008091C00086FFFCCF8091C00080648093AC
:10FB7000C000922F2093C6008091C00086FFFCCF6A
:10FB80008091C00080648093C0008EE08093C600A6
:10FB90008091C00086FFFCCF8091C000806480937C
:10FBA000C00065E1C15DDE4FE880CF52D1406E25D7
:10FBB00069276427FE01319610C090819093C6009A
:10FBC0008091C00086FFFCCF31968091C000806498
:10FBD0008093C0006927215030402115310569F715
:10FBE0006093C6008091C00086FFFCCF8091C0006A
:10FBF00080648093C00085B1805885B9772081F4F6
:10FC0000C15DDE4F0881CF52D1400F5FC15DDE4F35
:10FC10000883CF52D14090E0A0E0B0E00D941AF4F8
:10FC200027982F9880E090E020ED37E0F901319798
:10FC3000F1F7019684369105C9F700008091C00064
:10FC40008D7F8093C00081E180935700E895EE2777
:10FC5000FF270994FFCF90E00D941AF497FB092E2B
:10FC600007260AD077FD04D02ED006D000201AF443
:10FC7000709561957F4F0895F6F7909581959F4F08
:10FC80000895A1E21A2EAA1BBB1BFD010DC0AA1FDD
:10FC9000BB1FEE1FFF1FA217B307E407F50720F0F5
:10FCA000A21BB30BE40BF50B661F771F881F991F70
:10FCB0001A9469F760957095809590959B01AC01B9
:10FCC000BD01CF010895AA1BBB1B51E107C0AA1FAC
:10FCD000BB1FA617B70710F0A61BB70B881F991FED
:10FCE0005A95A9F780959095BC01CD010895F99991
:10FCF000FECF92BD81BDF89A992780B50895262F31
:10FD0000F999FECF1FBA92BD81BD20BD0FB6F89400
:0EFD1000FA9AF99A0FBE01960895F894FFCF63
:040000033000E000E9
:00000001FF
