:10000000BFC10000EEC10000ECC10000EAC1000069
:10001000E8C10000E6C10000E4C10000E2C1000048
:10002000E0C10000DEC10000DCC10000DAC1000058
:10003000D8C10000D6C10000D4C10000D2C1000068
:10004000D0C10000CEC10000CCC10000CAC1000078
:10005000C8C10000C6C10000C4C100000C94240A3D
:10006000C0C100000C94FB090C94D209BAC1000075
:10007000B8C10000B6C10000B4C10000B2C10000A8
:10008000B0C10000AEC10000ACC10000AAC10000B8
:10009000A8C10000A6C10000A4C100000C946E0A13
:1000A000A0C100009EC100009CC100009AC10000D8
:1000B00098C1000096C1000094C1000092C10000E8
:1000C00090C100008EC100008CC100000C94A909F1
:1000D0000C94800986C100000C9457090C942E09D9
:1000E00080C10000000020002300260029002C0011
:1000F0002F003200000100000301060109010A205F
:100100004D455453434920424547494E0A000A0A87
:1001100057656C636F6D6520746F204C6942434D69
:100120002076302E302E340A0A000A204D455453D2
:1001300043492044495341424C450A000A204D4559
:100140005453434920454E41424C450A0000000AA1
:100150000B02090C0D0E080703040100000000004B
:10016000000000000000000000000000000000008F
:10017000000000000000000000121110000000004C
:10018000000000000000000000000000000000006F
:100190000000002C20566D696E203D20000A566D2F
:1001A0006178203D20000A4C544320646174612032
:1001B0006572726F720A000A537461636B20766F06
:1001C0006C746167652069733A20000A4D45545389
:1001D00043492042616420436865636B73756D0019
:1001E0000A4D455453434920627566666572207313
:1001F000796E63000A4D4554534349207374616C12
:10020000652E202044697363617264696E6720669D
:1002100072616D653A20004241545453434920466F
:1002200072616D652030784141004241545453431E
:1002300049204672616D6520307838370020616D45
:1002400070732E202054656C6C696E67204D434D91
:100250002063757272656E742069733A20002063A2
:100260006F756E74732C2077686963682069733AC0
:1002700020000A0A52617720414443207265737559
:100280006C742069733A2000506C75676765642050
:10029000496E00556E706C7567676564000A477239
:1002A000696420436861726765723A20004F4E00AE
:1002B0004F4646000A4B65792069733A20000000DA
:1002C0002200250028002B002E00310034000201FE
:1002D0000000050108010B01000021002400270097
:1002E0002A002D0030003300010100000401070145
:1002F0000A010505050507050808080802020202AB
:100300000A0A0808040404040101010101010101B1
:100310000303030303030303040707070C0C0C0C7C
:100320000C0C0C0C02020202060606060606060665
:100330000B0B0B0B0B0B0B0B0102102020080810F2
:100340002040102040800201020108040201010245
:10035000040810204080804020100804020180041E
:100360000201804020100804020108040201010279
:100370000408102040800102040810204080910BE6
:1003800011241FBECFEFD1E2DEBFCDBF00E00CBF16
:1003900028E0ACEFB4E001C01D92AD31B207E1F747
:1003A00014E0A0E0B2E0EEEBF1E300E00BBF02C02E
:1003B00007900D92AC3FB107D9F711E0C0ECD1E046
:1003C00000E006C021970109802FFE010E94C4169B
:1003D000CF3BD10780E00807A9F70E94270C0C94B7
:1003E000DD180ECE90E0FC01E85CFC4F24918E50AD
:1003F0009D4FFC018491882399F090E0880F991F0C
:10040000FC01E852FD4FA591B491FC01E254FD4F6F
:10041000859194918FB7F894EC91E22BEC938FBF78
:10042000089508950895AF92BF92CF92DF92EF9210
:10043000FF920F931F93CF93DF936C017B018B018E
:10044000040F151FEB015E01AE18BF08C017D107DE
:1004500059F06991D601ED91FC910190F081E02D68
:10046000C6011995892B79F7C501DF91CF911F91AD
:100470000F91FF90EF90DF90CF90BF90AF900895D5
:10048000FC01448155816081718184E697E0CBCF86
:10049000FC01A089B1898C91A689B78982FD0FC022
:1004A0009C91818D8F5F8F73228D821749F0A18D72
:1004B000AE0FBF2FB11D5D969C93818F08958C91D7
:1004C0000895FC01538D448D252F30E0842F90E05A
:1004D000821B930B541710F0CF960895019708953F
:1004E000FC01918D828D981761F0A28DAE0FBF2F08
:1004F000B11D5D968C91928D9F5F9F73928F90E05E
:1005000008958FEF9FEF0895FC01918D828D9817CC
:1005100031F0828DE80FF11D858D90E008958FEF09
:100520009FEF0895FC01918D228D892F90E0805CD2
:100530009F4F821B91098F73992708958AE296E055
:10054000F1DF21E0892B09F420E0822F089587EC68
:1005500096E0E8DF21E0892B09F420E0822F08955E
:1005600084E697E0DFDF21E0892B09F420E0822F89
:100570000895CF92DF92EF92FF921F93CF93DF9374
:10058000EC016A017B01122FE889F98982E08083FE
:10059000C11481EED806E104F104B1F160E079E024
:1005A0008DE390E0A70196010E94A2162150310927
:1005B000410951095695479537952795EC85FD8555
:1005C0001082EE85FF852083188EEC89FD891083CB
:1005D000EA89FB89808180618083EA89FB89808147
:1005E00088608083EA89FB89808180688083EA89CA
:1005F000FB8980818F7D8083DF91CF911F91FF9058
:10060000EF90DF90CF900895E889F989108220E17A
:10061000D5CFFC01A48DA80FB92FB11DA35ABF4F90
:100620002C91848D90E001968F739927848FA689F1
:10063000B7892C93A089B1898C91837080648C9345
:10064000938D848D981306C00288F389E02D8081F4
:100650008F7D80830895EF92FF920F931F93CF9326
:10066000DF93EC0181E0888F9B8D8C8D98131AC0ED
:10067000E889F989808185FF15C09FB7F894EE89D4
:10068000FF896083E889F989808183708064808331
:100690009FBF81E090E0DF91CF911F910F91FF907C
:1006A000EF900895F62E0B8D10E00F5F1F4F0F7324
:1006B0001127E02E8C8D8E110BC00FB607FCFACFE0
:1006C000E889F989808185FFF5CFCE01A2DFF2CFDD
:1006D000EB8DEC0FFD2FF11DE35AFF4FF0829FB71A
:1006E000F8940B8FEA89FB8980818062D0CF0F93C9
:1006F0001F93CF93DF938C01D0E0C0E0F801EC0FA3
:10070000FD1F6491662339F084E697E0A4DF892B0E
:1007100011F02196F3CFCE01DF91CF911F910F9170
:100720000895CF93DF93EC01888D8823B1F0AA89D7
:10073000BB89E889F9898C9185FD03C0808186FD9C
:100740000CC00FB607FCF7CF8C9185FFF2CF8081EC
:1007500085FFEDCFCE015DDFEACFDF91CF91089528
:1007600080E090E0892B21F0FBDE81110E940000E7
:1007700080E090E0892B49F080E090E0892B29F01F
:100780000E94000081110E94000080E090E0892B0F
:1007900021F0DDDE81110E94000080E090E0892BD5
:1007A00021F0CCDE81110C9400000895815082313B
:1007B00008F05AC0E82FF0E08827EE51FC4F8F4F29
:1007C0000C94C41602040604F403FA03FE03340472
:1007D00009040F04130419041D04210427042B0425
:1007E00034042F0435043904809180008F7780937E
:1007F00080000895809180008F7DF9CF80918000E6
:10080000877FF5CF84B58F7784BD089584B58F7DBC
:10081000FBCF8091B0008F778093B00008958091D6
:10082000B0008F7DF9CF809190008F7780939000FA
:100830000895809190008F7DF9CF80919000877FFF
:10084000F5CF8091A0008F778093A00008958091CC
:10085000A0008F7DF9CF8091A000877FF5CF809198
:1008600020018F77809320010895809120018F7D52
:10087000F9CF80912001877FF5CFCF93DF93282F89
:1008800030E0F901E35BFE4F8491F901E85CFC4F35
:10089000D491F901EE50FD4FC491CC2399F0811110
:1008A00085DFEC2FF0E0EE0FFF1FEC51FF4FA5911D
:1008B000B491EC91ED2381E090E009F480E0DF91C8
:1008C000CF91089580E090E0FACF1F93CF93DF930C
:1008D000282F30E0F901E35BFE4F8491F901E85CD9
:1008E000FC4FD491F901EE50FD4FC491CC23A1F0FF
:1008F000162F81115BDFEC2FF0E0EE0FFF1FE254AB
:10090000FD4FA591B4918FB7F894EC91111108C0E7
:10091000D095DE23DC938FBFDF91CF911F91089597
:10092000DE2BF8CF3FB7F8948091AA059091AB05E4
:10093000A091AC05B091AD0526B5A89B05C02F3F91
:1009400019F00196A11DB11D3FBFBA2FA92F982FF5
:100950008827BC01CD01620F711D811D911D42E0F0
:10096000660F771F881F991F4A95D1F708958F92B8
:100970009F92AF92BF92CF92DF92EF92FF924B0184
:100980005C01D0DF6B017C01CDDF6C197D098E0924
:100990009F09683E734081059105B0F321E0821AFA
:1009A0009108A108B10888EEC80E83E0D81EE11CAA
:1009B000F11C81149104A104B10431F7FF90EF9070
:1009C000DF90CF90BF90AF909F908F90089585ED6E
:1009D0008093BC008091BC0084FDFCCF1092B505D3
:1009E000089520915E05260F3327331F21323105EC
:1009F000ECF42091B505FC0190E080E0243069F032
:100A000082E00895A0915E052191AC01425C5A4FAD
:100A1000A40FB52FB11D2C930196861798F38091E2
:100A20005E05680F60935E0580E0089581E008959B
:100A30000895E091B9058091B805E81730F4F0E029
:100A4000E25EFA4F808190E008958FEF9FEF089566
:100A50009091B9058091B8052FEF3FEF981748F4B2
:100A6000E92FF0E0E25EFA4F208130E09F5F909343
:100A7000B905C90108958091B8059091B905891B00
:100A8000990B0895CF92DF92EF92FF920F931F93ED
:100A9000CF93DF937C01CB018A0120911D05222396
:100AA00089F0EB016B01C40ED51ECC15DD0561F09C
:100AB0006991D701ED91FC910190F081E02DC70182
:100AC0001995F3CF642F8DDFC801DF91CF911F916E
:100AD0000F91FF90EF90DF90CF900895CF93DF9329
:100AE0001F92CDB7DEB7698320911D052223F9F04F
:100AF0002091B605203258F021E030E0FC0133832C
:100B0000228390E080E00F90DF91CF910895809153
:100B1000B705E82FF0E0E350FB4F998190838F5F9A
:100B20008093B7058093B60581E090E0ECCF61E05B
:100B3000CE01019656DFF8CF8AE296E0D1CC089537
:100B4000CF93FC01C48121E020931D05C093FC04D8
:100B50001092B7051092B6058385682B81E098E066
:100B6000BDDF9091B605913208F03FC08091B50588
:100B70008111FCCF82E08093B50581E08093B405BC
:100B80008FEF809381051092A3059093A205ADEF9E
:100B9000B4E0E2E8F5E080E098132FC01092A405DD
:100BA0008091A405CC0FC82BC093A4058091B305F8
:100BB000813039F51092B3058091A4058093BB0074
:100BC0008091BC0083FDF8CF85EC8093BC008091C0
:100BD000B5058230E1F3809181058F3F31F080913E
:100BE0008105803211F0809181051092B705109235
:100BF000B60510921D05CF9108952D9121938F5F19
:100C0000CBCF85EEE2CF089590E080E00895462FA7
:100C1000DB0120E130E09D91722F6627F901EE0F94
:100C2000EF2FEE1FFF0BF195E927FF27EE0FFF1FB8
:100C3000ED5EFD4F20813181262737279A2F941BA7
:100C4000981748F3C901880F991F089560E085E35C
:100C50003CDE61E070E080E090E089DE61E085E309
:100C600034CE60E085E331DE83E290E00197F1F776
:100C700061E085E32ACE0F931F93CF938C01C62F9B
:100C80005FDF6C2F6460C8015BDF6C2F6B7FC80176
:100C900057DF83EC90E00197F1F7CF911F910F910F
:100CA00008950F931F93CF93DF938C01D62FC42FFA
:100CB000607F642BE0DF80E1D89FB00111246C2BB2
:100CC000C801DF91CF911F910F91D5CFCF93DF93C3
:100CD00000D000D01F921F92CDB7DEB798E0EBE0B6
:100CE000F2E0DE01119601900D929A95E1F7909154
:100CF0001608961710F46FEF690F262F30E0220FB9
:100D0000331F41E050E04C0F5D1F240F351FF901E8
:100D10006081680F606840E08DE098E028960FB62B
:100D2000F894DEBF0FBECDBFDF91CF91BACF41E0C7
:100D3000B8DF81E090E00895CF93DF93EC018881E4
:100D40009981009711F00E946817198218821D82FC
:100D50001C821B821A82DF91CF910895FC01808151
:100D60009181009711F00C9468170895FB01019090
:100D70000020E9F73197AF01461B570BDC01ED91DD
:100D8000FC910280F381E02D19948F929F92AF9293
:100D9000BF92EF92FF920F931F93CF93DF93CDB744
:100DA000DEB7A1970FB6F894DEBF0FBECDBF7C01B2
:100DB000FA01CB0119A2223008F42AE08E010F5D5E
:100DC0001F4F822E912CB12CA12CBF01A5019401A3
:100DD0000E94A216F901CA016A3004F5605DD801CB
:100DE0006E938D01232B242B252B79F790E080E047
:100DF000109719F0BD01C701B9DFA1960FB6F8949D
:100E0000DEBF0FBECDBFDF91CF911F910F91FF903D
:100E1000EF90BF90AF909F908F900895695CDFCF67
:100E20002F923F924F925F926F927F928F929F92FA
:100E3000AF92BF92CF92DF92EF92FF921F93CF9328
:100E4000DF93EC016A017B01722EAB019601CB01AD
:100E5000B6010E949E1663E474E0811126C046012B
:100E60005701E894B7F82FEF3FEF4FE75FE7C50171
:100E7000B4010E949E1681110CC02FEF3FEF4FE787
:100E80005FE7C501B4010E94831467E474E018169B
:100E900064F02FEF3FEF4FE75FE4C701B6010E9418
:100EA0009A161816ACF46BE474E0CE01DF91CF9182
:100EB0001F91FF90EF90DF90CF90BF90AF909F90E9
:100EC0008F907F906F905F904F903F902F904ECF7C
:100ED0002FEF3FEF4FE75FECC701B6010E9483148D
:100EE00087FDE1CF20E030E0A901C701B6010E94F3
:100EF0008314312C212C87FF0DC0E881F9810190EA
:100F0000F081E02D6DE2CE0119951C01F7FAF09405
:100F1000F7F8F09410E060E070E080E09FE3711675
:100F200041F020E030E040E251E40E9401161F5FF2
:100F3000F6CFA70196010E949D152B013C010E944E
:100F40006E164B015C012AE0BC01A401CE011DDF3D
:100F50007C01E20CF31C1123D9F1C501B4010E94FC
:100F600087149B01AC01C301B2010E949C154B0187
:100F70005C01E881F9810190F081E02D6EE2CE0103
:100F80001995E80EF91E115018F120E030E040E20A
:100F900051E4C501B4010E94E8142B013C010E94F8
:100FA0006E164B01B12CA12C2AE0B501A401CE0193
:100FB000ECDEE80EF91EC501B4010E9487149B0106
:100FC000AC01C301B2010E949C154B015C01DBCF57
:100FD000C701DF91CF911F91FF90EF90DF90CF90ED
:100FE000BF90AF909F908F907F906F905F904F9049
:100FF0003F902F900895BACE1092C2051092C1056D
:101000001092C00563E087E061DE6FE474E08DE07C
:1010100098E0F1CF0F931F93CF93DF93EC0188817A
:101020009981009759F02A813B812617370730F0C4
:1010300081E0DF91CF911F910F9108958B016F5F38
:101040007F4F0E94F117009759F0998388831B8383
:101050000A832C813D81232B59F7FC011082E8CFB4
:1010600080E0E7CFEF92FF920F931F93CF93DF9330
:10107000EC017B01198218821B821A821D821C825C
:10108000FB0101900020E9F731978F01061B170B38
:10109000B801C0DF811108C0CE01DF91CF911F914F
:1010A0000F91FF90EF9048CE1D830C83B70188818C
:1010B0009981DF91CF911F910F91FF90EF900C9448
:1010C000D618EF92FF920F931F93CF93DF938C016B
:1010D0007B01EB0109900020E9F72197C61BD70B94
:1010E000BE0198DF811108C0C801DF91CF911F9127
:1010F0000F91FF90EF9020CEF801D583C483B70104
:1011000080819181DF91CF911F910F91FF90EF909E
:101110000C94D6180F931F93CF93DF93CDB7DEB700
:1011200062970FB6F894DEBF0FBECDBF8C01CB0126
:10113000F8011182108213821282158214824AE011
:10114000BE016F5F7F4F0E944614BE016F5F7F4FED
:10115000C801B7DF62960FB6F894DEBF0FBECDBFF1
:10116000DF91CF911F910F9108950F931F93CF930C
:10117000DF9300D000D000D0CDB7DEB78C01862F32
:10118000F80111821082138212821582148250E0BB
:10119000BE016F5F7F4F90E00E945014BE016F5FF1
:1011A0007F4FC8018EDF29960FB6F894DEBF0FBEC1
:1011B000CDBFDF91CF911F910F910895EF92FF92D4
:1011C0000F931F93CF93DF936115710541F480E076
:1011D000DF91CF911F910F91FF90EF9008954115EE
:1011E0005105A9F07B01EC010C811D81040F151F35
:1011F000B80110DF882359F3288139818C819D81C2
:10120000B701820F931F0E94D6181D830C8381E0C3
:10121000DFCFCF93DF93EC01FB0101900020E9F7D2
:101220003197AF01461B570BC9DF811102C0CE01B8
:1012300083DDCE01DF91CF910895CF93DF93EC0151
:10124000FB014481558160817181B8DF811102C049
:10125000CE0172DDCE01DF91CF9108951F920F92E2
:101260000FB60F9211240BB60F922F933F934F930B
:101270005F936F937F938F939F93AF93BF93EF93FE
:10128000FF938AE296E0C5D9FF91EF91BF91AF91AC
:101290009F918F917F916F915F914F913F912F918E
:1012A0000F900BBE0F900FBE0F901F9018951F92BE
:1012B0000F920FB60F9211240BB60F922F933F93FC
:1012C0004F935F936F937F938F939F93AF93BF934E
:1012D000EF93FF938AE296E0DBD8FF91EF91BF9105
:1012E000AF919F918F917F916F915F914F913F91BE
:1012F0002F910F900BBE0F900FBE0F901F9018955F
:101300001F920F920FB60F9211240BB60F922F93CC
:101310003F934F935F936F937F938F939F93AF937D
:10132000BF93EF93FF9387EC96E073D9FF91EF9112
:10133000BF91AF919F918F917F916F915F914F91ED
:101340003F912F910F900BBE0F900FBE0F901F90EB
:1013500018951F920F920FB60F9211240BB60F9291
:101360002F933F934F935F936F937F938F939F93AD
:10137000AF93BF93EF93FF9387EC96E089D8FF91EB
:10138000EF91BF91AF919F918F917F916F915F91FD
:101390004F913F912F910F900BBE0F900FBE0F906A
:1013A0001F9018951F920F920FB60F9211240BB633
:1013B0000F922F933F934F935F936F937F938F93EE
:1013C0009F93AF93BF93EF93FF9384E697E021D968
:1013D000FF91EF91BF91AF919F918F917F916F910D
:1013E0005F914F913F912F910F900BBE0F900FBEC9
:1013F0000F901F9018951F920F920FB60F92112405
:101400000BB60F922F933F934F935F936F937F93FE
:101410008F939F93AF93BF93EF93FF9384E697E0EF
:1014200037D8FF91EF91BF91AF919F918F917F91AD
:101430006F915F914F913F912F910F900BBE0F9045
:101440000FBE0F901F9018951F920F920FB60F921C
:1014500011242F933F938F939F93AF93BF938091CA
:10146000A6059091A705A091A805B091A905309176
:10147000A50523E0230F2D3758F50196A11DB11DB9
:101480002093A5058093A6059093A705A093A80592
:10149000B093A9058091AA059091AB05A091AC05E8
:1014A000B091AD050196A11DB11D8093AA05909341
:1014B000AB05A093AC05B093AD05BF91AF919F91E3
:1014C0008F913F912F910F900FBE0F901F90189505
:1014D00026E8230F0296A11DB11DD2CF1F920F92B5
:1014E0000FB60F9211240BB60F922F933F934F9389
:1014F0005F936F937F938F939F93AF93BF93EF937C
:10150000FF938091B900887F803609F44CC008F0C1
:101510003FC0883209F4A8C028F5803109F49CC086
:10152000C8F4882309F4FAC0883009F495C0FF9103
:10153000EF91BF91AF919F918F917F916F915F914B
:101540004F913F912F910F900BBE0F900FBE0F90B8
:101550001F901895883109F487C0803241F7809335
:10156000810514C0803409F49CC040F48033B9F381
:101570008833E9F68093810585ECAFC0803509F4A6
:1015800084C0883509F495C0883489F620DACFCF35
:10159000883909F48CC038F5883729F050F488363A
:1015A00011F0803721F683E08093B5051092800515
:1015B00057C0883809F47BC0803919F0803809F0A9
:1015C000B6CF80918005803208F071C0E09180052F
:1015D00081E08E0F809380058091BB00F0E0E05A9F
:1015E000FA4F80833DC0803B39F0E0F4803A09F443
:1015F00079C0883A09F09BCF84E08093B5051092BA
:101600005F0510925E05E091B105F091B205199564
:1016100080915E0581110FC081E080935E0510927C
:101620003E0509C0803C09F4A7CF883C09F4A4CF4B
:10163000883B09F07CCFE0915F0581E08E0F8093BD
:101640005F05F0E0E25CFA4F80818093BB009091EF
:101650005F0580915E0529C08091A4058093BB0041
:1016600085EC8093BC0063CF9091A3058091A20587
:10167000981758F5E091A30581E08E0F8093A3059C
:10168000F0E0EE57FA4F8081E9CFE091A30581E0C9
:101690008E0F8093A3058091BB00F0E0EE57FA4FC8
:1016A00080839091A3058091A2059817C8F285E8E0
:1016B000D8CFE091A30581E08E0F8093A3058091A0
:1016C000BB00F0E0EE57FA4F80838091B4058111A2
:1016D0005DCF81E08093B30584EA8093BC001092D3
:1016E000B50525CF85EC8093BC001092B50580919F
:1016F0008005803230F4E0918005F0E0E05AFA4F46
:1017000010826091800570E0E091AF05F091B00526
:1017100080E695E019951092800509CF1092810519
:1017200035CFEAE2F6E01382128288EE93E0A0E081
:10173000B0E084839583A683B78327E134E03183C7
:10174000208345E351E05587448744E351E05787C0
:10175000468740E351E0518B408B41E351E0538B8E
:10176000428B42E351E0558B448B46E351E0578B6B
:10177000468B118E128E138E148EE7ECF6E01382D8
:10178000128284839583A683B7833183208345EDBA
:1017900050E05587448744ED50E05787468740ED39
:1017A00050E0518B408B41ED50E0538B428B42ED2A
:1017B00050E0558B448B46ED50E0578B468B118E95
:1017C000128E138E148EE4E6F7E013821282848365
:1017D0009583A683B7833183208325EC30E035875A
:1017E000248724EC30E03787268720EC30E0318BEB
:1017F000208B21EC30E0338B228B22EC30E0358BD8
:10180000248B26EC30E0378B268B118E128E138EB4
:10181000148EE1E0F8E01382128284839583A6831C
:10182000B78389E294E091838083EDE0F8E013824E
:1018300012828BE394E09183808387E2848384E146
:10184000808784E08187128688E083870895CF931C
:10185000DF93CDB7DEB7E0970FB6F894DEBF0FBECB
:10186000CDBF789484B5826084BD84B5816084BD29
:1018700085B5826085BD85B5816085BD80916E002E
:10188000816080936E00109281008091810082605F
:10189000809381008091810081608093810080919C
:1018A00080008160809380008091B100846080938B
:1018B000B1008091B00081608093B0008091910070
:1018C000826080939100809191008160809391006B
:1018D000809190008160809390008091A10082604F
:1018E0008093A1008091A10081608093A1008091EC
:1018F000A00081608093A00080912101826080938C
:10190000210180912101816080932101809120013A
:1019100081608093200180917A00846080937A00B6
:1019200080917A00826080937A0080917A00816051
:1019300080937A0080917A00806880937A00109278
:10194000C1008EE30E94F20160E08EE30E94650414
:101950008CE00E94F20160E08CE00E94650482E469
:101960000E94F20161E082E40E94650483E40E9427
:10197000F20184E40E94F20185E40E94F20187E012
:101980000E94F20187E00E94F20160E087E00E947D
:1019900065048BE00E94F20188E30E94F2018AE074
:1019A0000E94F20184E00E94F2018FE30E94F201A2
:1019B00061E08FE30E9465046AE070E080E090E0FF
:1019C0000E94B7041092000226E040E052EC61E071
:1019D00070E084E697E00E94B90282E00E94F20182
:1019E00060E082E00E94650483E00E94F20161E011
:1019F00083E00E94650426E240E855E260E070E082
:101A00008AE296E00E94B90281E0809303028EEFA1
:101A100090E00E94770380E40E94F20160E080E49D
:101A20000E94650481E40E94F20161E081E40E9469
:101A3000650426E240E855E260E070E087EC96E05D
:101A40000E94B902D9DA1FB7F8948091AE058111CE
:101A500024C0E7E2F3E08491EDE6F3E09491E82F0F
:101A6000F0E0EE0FFF1FE852FD4FA591B491EC910D
:101A7000E92321F461E085E30E94650485E30E9487
:101A8000F2018CB580618CBD8CB580648CBD84E323
:101A90000E94F20183E30E94F2018091AE058F5F04
:101AA0008093AE051FBF8CB58C7F82608CBD8DB5D9
:101AB0008E7F8DBD83E08093BA0580E68093BB0561
:101AC0001092B9051092B8051092B7051092B6059C
:101AD0001092B50581E08093B4051092B30561E0E2
:101AE00084E10E94650461E085E10E9465048091C3
:101AF000B9008E7F8093B9008091B9008D7F80936B
:101B0000B90088E48093B80085E48093BC0081E14B
:101B100092E09093B2058093B10582E192E09093B8
:101B2000B0058093AF05109212088091160882309C
:101B300018F098E09093120890911708992339F0C3
:101B4000813029F48091120884608093120862E346
:101B500070E080E090E00E94B704609118088DE08A
:101B600098E00E94A00568EE73E080E090E00E949B
:101B7000B70460E38DE098E07ED80BE416E4C8017A
:101B80000197F1F760E38DE098E075D8C8010197FF
:101B9000F1F760E38DE098E06ED883E592E001977D
:101BA000F1F760E28DE098E066D86091120860621B
:101BB00040E08DE098E075D884E08093130840E021
:101BC0006CE08DE098E06DD840E061E08DE098E059
:101BD00068D80BE31FE1C8010197F1F782E0809319
:101BE000140840E066E08DE098E05BD840E062E0F9
:101BF0008DE098E056D8C8010197F1F780918100F7
:101C0000887F8160809381008EE091E00E9477035D
:101C1000AE014B5F5F4F5BA74AA78DE00E943D047A
:101C20008CA7809129065CA5581701F184EB92E0FE
:101C30000E947703E1D98CA58111ABC280EB92E0C1
:101C40000E94770360E080E40E94650410922306FE
:101C500061E083E00E946504109203028AE291E051
:101C60000E94770360E08CE00E9465049CA590933D
:101C7000290689E00E943D048C01FF24F394892BFE
:101C800009F0F12C80912806F816E1F08DE992E038
:101C90000E9477030115110509F49AC283E992E0C5
:101CA0000E9477038BE00E94F20160E08BE00E94CB
:101CB000650460E08AE00E9465046EE574E084E6F5
:101CC00097E099D9F0922806ECA5E13019F0012BA4
:101CD00009F03BC50E9426068091BA058983809150
:101CE000BB058A836AEB75E082E00E9407069B834E
:101CF0008C830E94310660E085E30E946504FE014A
:101D00003196DE2ECF2E81918EBD0DB407FEFDCF14
:101D10004AA55BA54E175F07B1F761E085E30E9416
:101D2000650480E490E0F12CE12C20917B00277F7A
:101D300020937B002091000250E4259F9001112404
:101D400020937C0020917A00206420937A002091D7
:101D50007A0026FDFCCF309178002091790023276E
:101D600032272327E20EF31E0197F9F676E0F69468
:101D7000E7947A95E1F782E792E00E947703B70152
:101D80008D2D9C2DC7D98D2D9C2D0E9440028D2D0F
:101D90009C2D0E94AE068DE08E9D80018F9D100DC2
:101DA0001124E6E015950795EA95E1F7035411092A
:101DB0008EE592E00E947703B8018D2D9C2DAAD963
:101DC0008D2D9C2D0E9440028D2D9C2D0E94AE06D3
:101DD0008DE392E00E947703B801110F880B990BF5
:101DE00098D523E333E343E35FE3F2D572D76DA7DE
:101DF0007EA78FA798AB6DA57EA58D2D9C2D8AD92A
:101E00008D2D9C2D0E9440028D2D9C2D0E94AE0692
:101E10000E94260680E290E0BFD78C01F3EC2F2EC3
:101E2000F5E03F2E2101A12CBB24B394A4E06A2E3F
:101E300081E0B812D2C16A8219820E94310648013B
:101E4000780160E9762E79826D2D7C2D82E00E94EA
:101E500007069B838C8360E085E30E946504ED2D7B
:101E6000FC2D81918EBD0DB407FEFDCF8AA59BA5EB
:101E70008E179F07B1F7F70188E09FEF9EBD0DB465
:101E800007FEFDCF9EB591938150B9F761E085E3E0
:101E90000E946504E8E07E0EF8E0EF0EF11C20EBF6
:101EA0007212D1CF7201712C46E0470DF701272D38
:101EB000D801A20FB11D11968C91119790E0982F27
:101EC00088273C91830F911D819391932E5F24135A
:101ED000EFCFB40186E00E940706F401268130E0CE
:101EE000322F22274781240F311D2817390711F07F
:101EF000AA24A394F8E07F0E28E0820E911C48E10A
:101F0000E40EF11C50E27512CFCFB39486E0480E78
:101F1000511C95E0B9128CCFC801DAD7AA2009F478
:101F20006BC186EA91E00E9477031092BF05809111
:101F3000C1059091C20501969093C2058093C10599
:101F40008091BE058F5F8093BE059091C005981764
:101F500010F48093C00513ECC12E15E0D12E10E0D3
:101F600000E0EE24EA94FE2C90E080E0FC01EE0F0D
:101F7000FF1FEC0DFD1D208131812E153F0508F45A
:101F800079010217130708F4890101968C30910535
:101F900069F7E8E1CE0ED11C43E256E04C155D0531
:101FA00019F78DE991E00E947703B80190E080E095
:101FB000AED427E137EB41ED58E30AD52B013C01C4
:101FC00024E0BC01A20184E697E00E94100783E9A7
:101FD00091E00E947703B70190E080E098D427E178
:101FE00037EB41ED58E3F4D44B015C0124E0BC0134
:101FF000A40184E697E00E9410078091BF05882322
:1020000009F492C060E080E00E94660665E774E033
:102010008DE098E00E94FB0723E0B301A2018DE070
:1020200098E00E9410078091BC059091BD05801733
:10203000910718F51093BD050093BC0569E774E09E
:102040008DE098E00E94FB076091BC057091BD0592
:1020500090E080E05CD427E137EB41ED58E3B8D461
:10206000AB01BC0123E08DE098E00E94100760E81E
:1020700074E08DE098E00E94FB0761E080E00E9440
:10208000660662E874E08DE098E00E94FB0723E0BA
:10209000B501A4018DE098E00E9410078091010233
:1020A00090910202E816F90618F5F0920202E09209
:1020B000010266E874E08DE098E00E94FB07609101
:1020C00001027091020290E080E021D427E137EB19
:1020D00041ED58E37DD4AB01BC0123E08DE098E0F5
:1020E0000E94100760E874E08DE098E00E94FB0712
:1020F00062E080E00E9466066DE874E08DE098E0A2
:102100000E94FB07B8016E197F0990E080E0FFD3C1
:1021100027E137EB41ED58E35BD4AB01BC0123E091
:102120008DE098E00E941007093558E9150708F07E
:1021300069C089E00E943D04892B09F063C0073221
:10214000184908F070C061E08AE00E9465048BE0E5
:102150000E94F201E8E5F1E0E491E150E23108F09B
:1021600058C0F0E08827E954FF4E8F4F0DC60E117E
:10217000F611FC1108121412091120122912321240
:102180003E124A1256126712731209117F128B12F5
:1021900097128DEA92E00E94770361E080E40E944A
:1021A000650411E01093230660E083E00E9465045B
:1021B0001093030210922506109224061092260610
:1021C000109227068CE391E00E94770361E04BCDEB
:1021D00088E892E00E94770375CD92E0B91203C0BF
:1021E000E6E0EA8329CEF3E0BF1203C028E02A83A9
:1021F00023CE4AE04A8320CE81E08093BF0510922F
:10220000BE05A9CE60E08AE00E9465048BE00E94D2
:10221000F20160E08BE00E94650405C084B580682F
:1022200084BD8DE787BD4AE06091BE05CE01019671
:102230000E94B50860E974E0CE0142960E9432081F
:10224000BE016F5F7F4FCE0142960E941D090E9422
:102250004002CE0142960E94AE06CE0101960E9437
:10226000AE068091C1059091C2051B8A1A8A1D8A0B
:102270001C8A1F8A1E8A4AE0BE016F5F7F4F1AD3F5
:10228000BE016F5F7F4FCE0142960E9461086DEAEA
:1022900074E0CE0101960E943208BE016E5E7F4F4F
:1022A000CE0101960E941D090E944002CE010196B6
:1022B0000E94AE06CE0142960E94AE0660E070E03B
:1022C000CB0150E040E0FA01EE0FFF1FE20DF31DDD
:1022D00020813181620F731F811D911D4F5F5F4F00
:1022E0004C30510581F7E8E12E0E311CC214D304A5
:1022F00041F70DD327E137EB41ED58E369D3EED435
:10230000E62E87EB91E00E9477034AE06E2DCE0126
:1023100001960E94B508CE0101960E944002CE01AE
:1023200001960E94AE0662E087E00E94660663ECBA
:1023300074E08DE098E00E94FB074E2D50E070E0C5
:1023400060E02AE08DE098E00E94C50663E080E04E
:102350000E9466066CEC74E08DE098E00E94FB073A
:102360004091C1055091C20570E060E02AE08DE027
:1023700098E00E94C50664ED74E08DE098E00E944C
:10238000FB074091C00550E070E060E02AE08DE07E
:1023900098E00E94C50660E874E08DE098E00E9435
:1023A000FB07FCA5FF2309F4CAC18AE296E00E945C
:1023B00092028D3008F4C7C084EF91E00E94770349
:1023C00006E010E00E949C0540E1682FCE010196D6
:1023D0000E94B508CE0101960E944002CE010196EE
:1023E0000E94AE060150110969F7DFCF84B5806203
:1023F00084BD8DE788BD17CF809180008068809371
:1024000080008DE790E090938900809388000BCF47
:10241000809180008062809380008DE790E09093AF
:102420008B0080938A00FFCE80918000886080932B
:1024300080008DE790E090938D0080938C00F3CE28
:102440008091B00080688093B0008DE78093B300E6
:10245000EACE8091B00080628093B0008DE78093D7
:10246000B400E1CE809190008068809390008DE769
:1024700090E09093990080939800D5CE8091900041
:102480008062809390008DE790E090939B00809312
:102490009A00C9CE809190008860809390008DE76B
:1024A00090E090939D0080939C00BDCE8091A00011
:1024B00080688093A0008091A0008F7B8093A00013
:1024C0008DE790E09093A9008093A800ACCE809116
:1024D000A00080628093A0008DE790E09093AB0015
:1024E0008093AA00A0CE8091A00088608093A00075
:1024F0008DE790E09093AD008093AC0094CE8091F6
:1025000020018068809320018DE790E0909329015D
:102510008093280188CE80912001806280932001E1
:102520008DE790E090932B0180932A017CCE8091DF
:1025300020018860809320018DE790E090932D0129
:1025400080932C0170CE80910302811109C01092FA
:10255000240610922506109226061092270612C015
:102560008AE296E00E949202873060F019E10E94B0
:102570009C05863E09F4ECC080EE91E00E94770352
:102580001150A9F78091240690912506A091260666
:10259000B09127068093240690932506A0932606E3
:1025A000B093270640E160912706CE0101960E9474
:1025B000B50840E160912506CE0142960E94B5081B
:1025C00040E160912606CE0148960E94B50840E1A0
:1025D00060912406CE014E960E94B50869ED74E024
:1025E000CE0184960E943208BE01625E7F4FCE010A
:1025F00084960E941D0966EE74E00E940909BE01DE
:10260000685E7F4F0E941D096DEE74E00E9409090B
:10261000BE016E5E7F4F0E941D0964EF74E00E9450
:102620000909BE016F5F7F4F0E941D090E94400291
:10263000CE0184960E94AE06CE014E960E94AE0652
:10264000CE0148960E94AE06CE0142960E94AE068A
:10265000CE0101960E94AE06F0902506D090260687
:1026600087EC96E00E9461028D3008F468C080918A
:102670002306813009F063C02CEE4DA55EA524032E
:102680008001259F100D1124185F80910402873866
:1026900009F0ABC08AE292E00E94770367E887EC1A
:1026A00096E00E942B0360E487EC96E00E942B03E7
:1026B000F12CF594E7946E2D87EC96E00E942B03A5
:1026C00065E187EC96E00E942B036FE687EC96E0CD
:1026D0000E942B03C801880F991F192F1F77612FA4
:1026E00087EC96E00E942B03F02EE894F7F86F2D0C
:1026F00087EC96E00E942B0301EF0D0D0F0D62E3B6
:1027000087EC96E00E942B036AE387EC96E00E9438
:102710002B036AE387EC96E00E942B03010F6D2DDB
:1027200087EC96E00E942B03602F6E0D61956F770A
:1027300087EC96E00E942B038AEA8093040264E609
:1027400070E080E090E00E94B7040E94B00365CA88
:102750000E949C05182F0E949C05212F30E02A51D1
:102760003F4F820F932F911D8F779927892B01F56A
:10277000109324060E949C05082F0E949C05182F88
:102780000E949C05402F410F5527551F840F952F00
:10279000911D8F779927892BC1F08BEC91E00E94D6
:1027A000770366ED74E084E697E00E94B606D1CE2A
:1027B0008BEC91E00E94770366ED74E084E697E08D
:1027C0000E94B60610922406DDCE043B19F4109345
:1027D0002506D8CE033B19F410932606D3CE013E2E
:1027E00009F0D0CE10932706CDCE8A3A09F0A7CFB4
:1027F00087E192E00E9477036AEA87EC96E00E9404
:102800002B0360E187EC96E00E942B0360E087ECED
:1028100096E00E942B0360E087EC96E00E942B0379
:1028200060E087EC96E00E942B0360E087EC96E086
:102830000E942B0360E487EC96E00E942B0361E684
:1028400087EC96E00E942B03C801880F991F192F6F
:102850001F77612F87EC96E00E942B030F77602F84
:1028600087EC96E00E942B036BE56F0D060F6F2D32
:1028700087EC96E00E942B03602F610F61956F77C4
:1028800087EC96E00E942B0387E857CFBB274A309E
:1028900031F4992322F4BDE2909581959F4F0BC0AE
:1028A0004532510518F4423008F004C0FB01108293
:1028B000CB010895BB27FB015527AA27880F991F35
:1028C000AA1FA41710F0A41B83955051B9F7A05D5F
:1028D000AA3308F0A95DA193009779F7B111B193DC
:1028E0001192CB0100C0DC01FC01672F71917723AD
:1028F000E1F7329704C07C916D9370836291AE17BB
:10290000BF07C8F3089540D008F481E00895E89423
:1029100009C097FB3EF490958095709561957F4F27
:102920008F4F9F4F9923A9F0F92F96E9BB279395D5
:10293000F695879577956795B795F111F8CFFAF4E5
:10294000BB0F11F460FF1BC06F5F7F4F8F4F9F4F16
:1029500016C0882311F096E911C0772321F09EE874
:10296000872F762F05C0662371F096E8862F70E0DA
:1029700060E02AF09A95660F771F881FDAF7880FB4
:102980009695879597F90895990F0008550FAA0B0A
:10299000E0E8FEEF16161706E807F907C0F0121672
:1029A0001306E407F50798F0621B730B840B950B75
:1029B00039F40A2661F0232B242B252B21F40895CA
:1029C0000A2609F4A140A6958FEF811D811D089567
:1029D0000BD078C069D028F06ED018F0952309F09C
:1029E0005AC05FC01124A2C07ED0A0F3959FD1F33E
:1029F000950F50E0551F629FF001729FBB27F00DAD
:102A0000B11D639FAA27F00DB11DAA1F649F662701
:102A1000B00DA11D661F829F2227B00DA11D621F50
:102A2000739FB00DA11D621F839FA00D611D221F0A
:102A3000749F3327A00D611D231F849F600D211DEE
:102A4000822F762F6A2F11249F5750408AF0E1F091
:102A500088234AF0EE0FFF1FBB1F661F771F881FDA
:102A600091505040A9F79E3F510570F014C05EC0D0
:102A70005F3FECF3983EDCF3869577956795B795C5
:102A8000F795E7959F5FC1F7FE2B880F911D9695EF
:102A9000879597F9089597F99F6780E870E060E05F
:102AA00008959FEF80EC089500240A9416161706E7
:102AB00018060906089500240A941216130614062F
:102AC00005060895092E0394000C11F4882352F092
:102AD000BB0F40F4BF2B11F460FF04C06F5F7F4F4A
:102AE0008F4F9F4F089557FD9058440F551F59F031
:102AF0005F3F71F04795880F97FB991F61F09F3FEB
:102B000079F087950895121613061406551FF2CF13
:102B10004695F1DF08C0161617061806991FF1CF63
:102B200086957105610508940895E894BB2766278A
:102B30007727CB0197F908955058BB27AA270ED0C5
:102B4000C1CFB2DF30F0B7DF20F031F49F3F11F496
:102B50001EF4A7CF0EF4E095E7FB9DCFE92FC3DF6E
:102B600080F3BA17620773078407950718F071F4AA
:102B70009EF5DBCF0EF4E0950B2EBA2FA02D0B01A6
:102B8000B90190010C01CA01A0011124FF27591BB2
:102B900099F0593F50F4503E68F11A16F040A22FB8
:102BA000232F342F4427585FF3CF46953795279529
:102BB000A795F0405395C9F77EF41F16BA0B620B28
:102BC000730B840BBAF09150A1F0FF0FBB1F661F6F
:102BD000771F881FC2F70EC0BA0F621F731F841FB2
:102BE00048F4879577956795B795F7959E3F08F0D8
:102BF000B3CF9395880F08F09927EE0F9795879597
:102C000008950CD05FCF57DF40F04EDF30F021F455
:102C10005F3F19F040CF511189CF43CF64DF98F364
:102C20009923C9F35523B1F3951B550BBB27AA274D
:102C300062177307840738F09F5F5F4F220F331FBF
:102C4000441FAA1FA9F333D00E2E3AF0E0E830D08B
:102C500091505040E695001CCAF729D0FE2F27D08E
:102C6000660F771F881FBB1F261737074807AB075C
:102C7000B0E809F0BB0B802DBF01FF2793585F4FD1
:102C80002AF09E3F510568F006CF50CF5F3FECF32E
:102C9000983EDCF3869577956795B795F7959F5F96
:102CA000C9F7880F911D9695879597F90895E1E0EA
:102CB000660F771F881FBB1F621773078407BA0749
:102CC00020F0621B730B840BBA0BEE1F88F7E095A4
:102CD000089504D06894B11129CF08950CDF88F0CD
:102CE0009F5790F0B92F9927B751A0F0D1F0660FF8
:102CF000771F881F991F1AF0BA95C9F712C0B13013
:102D000081F013DFB1E0089510CF672F782F882767
:102D1000B85F39F0B93FCCF3869577956795B39551
:102D2000D9F73EF490958095709561957F4F8F4FC0
:102D30009F4F089529DE08F48FEF089525DE880B54
:102D4000990B0895A1E21A2EAA1BBB1BFD010DC011
:102D5000AA1FBB1FEE1FFF1FA217B307E407F5074B
:102D600020F0A21BB30BE40BF50B661F771F881F27
:102D7000991F1A9469F760957095809590959B01BD
:102D8000AC01BD01CF010895EE0FFF1F881F8BBF5F
:102D90000790F691E02D19940F931F93CF93DF9333
:102DA0008230910510F482E090E0E0911B08F091F0
:102DB0001C0830E020E0B0E0A0E0309799F4211545
:102DC000310509F44AC0281B390B24303105D8F5E8
:102DD0008A819B816115710589F1FB01938382834F
:102DE000FE0111C0408151810281138148175907AA
:102DF000E0F04817590799F4109761F012960C9378
:102E0000129713961C933296CF01DF91CF911F91A9
:102E10000F91089500931B0810931C08F4CF2115FF
:102E2000310551F04217530738F0A901DB019A012F
:102E3000BD01DF01F801C1CFEF01F9CF90931C086C
:102E400080931B08CDCFFE01E20FF31F8193919376
:102E50002250310939832883D7CF20911908309126
:102E60001A08232B41F42091070230910802309375
:102E70001A082093190820910502309106022115A5
:102E8000310541F42DB73EB74091090250910A0235
:102E9000241B350BE0911908F0911A08E217F3078B
:102EA000A0F42E1B3F0B2817390778F0AC014E5FBA
:102EB0005F4F2417350748F04E0F5F1F50931A08D5
:102EC00040931908819391939FCFF0E0E0E09CCF6D
:102ED000CF93DF930097E9F0FC01329713821282BF
:102EE000A0911B08B0911C08ED0130E020E0109784
:102EF000A1F420813181820F931F20911908309114
:102F00001A082817390709F061C0F0931A08E093EE
:102F10001908DF91CF910895EA01CE17DF07E8F590
:102F20004A815B819E0141155105B1F7E901FB839F
:102F3000EA8349915991C40FD51FEC17FD0761F43D
:102F4000808191810296840F951FE901998388837E
:102F5000828193819B838A83F0E0E0E012968D91D9
:102F60009C9113970097B9F52D913C911197CD0144
:102F70000296820F931F2091190830911A08281782
:102F8000390739F6309751F510921C0810921B083A
:102F9000B0931A08A0931908BCCFD383C283408191
:102FA0005181840F951FC817D90761F44E5F5F4F99
:102FB00088819981480F591F518340838A819B8161
:102FC000938382832115310509F0B0CFF0931C085B
:102FD000E0931B089ECFFD01DC01C0CF138212825B
:102FE000D7CF4F925F926F927F928F929F92AF92C4
:102FF000BF92CF92DF92EF92FF920F931F93CF93E6
:10300000DF938C01009791F4CB01DF91CF911F9159
:103010000F91FF90EF90DF90CF90BF90AF909F9077
:103020008F907F906F905F904F90B6CEFC01E60F2F
:10303000F71F9C0122503109E217F30708F4AAC0D8
:10304000D901CD91DC911197C617D70718F1C5307A
:10305000D10570F0CE0104978617970748F0C61B7C
:10306000D70B2297C193D1936D937C93CF0130DF1F
:10307000C801DF91CF911F910F91FF90EF90DF90EA
:10308000CF90BF90AF909F908F907F906F905F9008
:103090004F9008955B01AC1ABD0A4C018C0E9D1E29
:1030A000A0911B08B0911C08512C412CF12CE12C53
:1030B000109731F58091190890911A088815990593
:1030C00009F05CC04616570608F058C0809105020A
:1030D00090910602009741F48DB79EB74091090286
:1030E00050910A02841B950BE817F90708F052C0AB
:1030F000F0931A08E0931908F90171836083B8CF3F
:103100008D919C91119712966C90129713967C90CA
:103110001397A815B90559F56C0142E0C40ED11CEE
:10312000CA14DB0420F1AC014A195B09DA011296DA
:10313000159780F06282738251834083D9016D9329
:103140007C93E114F10471F0D7011396FC93EE9394
:1031500012978ECF22968C0F9D1FF9019183808349
:10316000F301EFCFF0931C08E0931B0881CF4816C2
:10317000590608F42C017D01D3019ACFCB010CDE56
:103180007C01009739F0AE01B80107D0C801A0DE7C
:1031900087016ECF10E000E06BCFFB01DC0102C0C5
:1031A00001900D9241505040D8F70895FB01DC0189
:0E31B00001900D920020E1F70895F894FFCFF2
:1031BE0001FFFF018700001D088000000040001481
:1031CE00005400000099C5ABCE320BCFD8561D640B
:1031DE0016FDD307F49E31AC3A35FFC82C51E96386
:1031EE00E2FA2797AD0E683C63A5A65875C1B0F3F9
:1031FE00BB6A7E9059099C3B97A2525F81C644F4EC
:10320E004F6D8A2E5BB79E85951C50E18378464A9A
:10321E004DD38829AFB06A82611BA4E6777FB24D89
:10322E00B9D47CB9F6203312388BFD762EEFEBDD58
:10323E00E04425BE0227C715CC8C0971DAE81FDAE7
:10324E001443D1C5F35C366E3DF7F80A2B93EEA10D
:10325E00E53820C2075BC269C9F00C0DDF941AA6CF
:10326E00113FD4525ECB9BF99060559D8604433638
:10327E0048AF8D55AACC6FFE6467A19A7203B73121
:10328E00BCA879EBA8726D4066D9A32470BDB58F2A
:10329E00BE167BEC5C75994792DE572384BA418843
:1032AE004A118F7C05E5C0D7CB4E0EB3DD2A181818
:1032BE001381D67BF1E234D03F49FAB4292DEC1FAD
:1032CE00E7862213A28A67B86C21A9DC7A45BF77FC
:1032DE00B4EE7114568D93BF98265DDB8E424B7003
:1032EE0040E985840F1DCA2FC1B6044BD7D212E018
:1032FE001979DC83FB1A3E2835B1F04C23D5E6E76D
:10330E00ED7E283DF9A43C96370FF2F2216BE4597D
:10331E00EFC02A3A0DA3C891C30806F5D56C105E0E
:10332E001BC7DEAA543391019A985F658CFC49CE77
:10333E00425787ADA03465066E9FAB6278FBBDC960
:10334E00B65073D6514F947D9FE45A1989804CB272
:10335E00472B82D1A548607A6BE3AE1E7D87B8B548
:10336E00B32C7641FCD839EA3273F78E2417E12557
:10337E00EABC2F4608DFCDEDC6740389D0101522A6
:10338E001EBBDBF80A61CF53C4CA0137D2AE179CFD
:10339E001C05D9FFFE663B5430CDF53026A9E39BC4
:1033AE00E8022D6FA7F662C4695DACA07F39BA0B37
:1033BE00B192746853F196C39D5A58A78B3E4E0C2A
:1033CE00459580000000002B0313026102910392C9
:1033DE000270028402000000006E05420504061809
:1033EE00053B052805190500000000970613020489
:1033FE000603066E616E00696E66006F76660020CB
:10340E0020202020202020202020202020000A47BD
:10341E0072696420436861726765722044697361E2
:10342E00626C65640068693A0020286D61783A0024
:10343E0029006C6F3A0020286D696E3A00643A00DC
:10344E000A69736F53504920636F6E7365637574A9
:10345E00697665206572726F72733A20002C206354
:10346E00756D756C6174697665206572726F7273B5
:10347E003A20002C20567061636B3A006572726FB1
:10348E0072733A0028000D0A000A4D455453434901
:10349E002045363A20002C2042333A20002C204280
:0C34AE00343A20002C2045313A20000068
:020000023000CC
:10E000000D9489F10D94B2F10D94B2F10D94B2F129
:10E010000D94B2F10D94B2F10D94B2F10D94B2F1F0
:10E020000D94B2F10D94B2F10D94B2F10D94B2F1E0
:10E030000D94B2F10D94B2F10D94B2F10D94B2F1D0
:10E040000D94B2F10D94B2F10D94B2F10D94B2F1C0
:10E050000D94B2F10D94B2F10D94B2F10D94B2F1B0
:10E060000D94B2F10D94B2F10D94B2F10D94B2F1A0
:10E070000D94B2F10D94B2F10D94B2F10D94B2F190
:10E080000D94B2F10D94B2F10D94B2F10D94B2F180
:10E090000D94B2F10D94B2F10D94B2F10D94B2F170
:10E0A0000D94B2F10D94B2F10D94B2F10D94B2F160
:10E0B0000D94B2F10D94B2F10D94B2F10D94B2F150
:10E0C0000D94B2F10D94B2F10D94B2F10D94B2F140
:10E0D0000D94B2F10D94B2F10D94B2F10D94B2F130
:10E0E0000D94B2F141546D656761323536300041AF
:10E0F000726475696E6F206578706C6F72657220DE
:10E1000073746B3530305632206279204D4C530099
:10E11000426F6F746C6F616465723E004875683F52
:10E1200000436F6D70696C6564206F6E203D200048
:10E130004350552054797065202020203D20005FF9
:10E140005F4156525F415243485F5F3D2000415658
:10E1500052204C696243205665723D20004743437C
:10E160002056657273696F6E203D20004350552024
:10E1700049442020202020203D20004C6F7720663D
:10E18000757365202020203D20004869676820665F
:10E190007573652020203D200045787420667573D6
:10E1A00065202020203D20004C6F636B2066757336
:10E1B000652020203D20004D617220203720323024
:10E1C000313300312E362E3800342E332E350056A2
:10E1D00023202020414444522020206F7020636F70
:10E1E00064652020202020696E73747275637469E1
:10E1F0006F6E2061646472202020496E74657272B3
:10E20000757074006E6F20766563746F7200726A49
:10E210006D702020006A6D70200057686174207056
:10E220006F72743A00506F7274206E6F7420737541
:10E2300070706F72746564004D7573742062652030
:10E2400061206C6574746572002000577269747483
:10E25000696E672045450052656164696E672045B7
:10E26000450045452065727220636E743D00504F35
:10E27000525400303D5A65726F2061646472003FF1
:10E280003D43505520737461747300403D454550C3
:10E29000524F4D207465737400423D426C696E6B41
:10E2A000204C454400453D44756D70204545505215
:10E2B0004F4D00463D44756D7020464C415348001B
:10E2C000483D48656C70004C3D4C69737420492F83
:10E2D0004F20506F72747300513D51756974005234
:10E2E0003D44756D702052414D00563D73686F7707
:10E2F00020696E7465727275707420566563746FF0
:10E30000727300593D506F727420626C696E6B00BD
:10E310002A0011241FBECFEFD1E2DEBFCDBF01E046
:10E320000CBF12E0A0E0B2E0EEE1FDEF03E00BBFB6
:10E3300002C007900D92A030B107D9F712E0A0E01B
:10E34000B2E001C01D92AE30B107E1F70F9460F367
:10E350000D948DFE01E20EBF0FEF0DBF11241FBE05
:10E360000D9460F30D9400F020E030E040ED57E0B4
:10E3700005C0FA013197F1F72F5F3F4F2817390792
:10E38000C0F308959C01260F311DC901A0E0B0E043
:10E390002F5F3F4FABBFFC018791882361F08093D3
:10E3A000C6008091C00086FFFCCF8091C0008064D1
:10E3B0008093C000EACF08958DE08093C6008091DD
:10E3C000C00086FFFCCF8091C00080648093C000B5
:10E3D0008AE08093C6008091C00086FFFCCF8091C8
:10E3E000C00080648093C00008950F94C2F10F9420
:10E3F000DCF10895FC019081992359F09093C600B7
:10E400008091C00086FFFCCF8091C0008064809323
:10E41000C0003196992379F70895282F982F929567
:10E420009F70892F805D8A3308F0895F8093C600D2
:10E430008091C00086FFFCCF8091C00080648093F3
:10E44000C000822F8F70982F905D9A3308F0995FEB
:10E450009093C6008091C00086FFFCCF8091C000E1
:10E4600080648093C00008959C01FB01853691056E
:10E470001CF46330710594F0C90164E670E00F94F8
:10E480002EFE605D7F4F6093C6008091C00086FFC6
:10E49000FCCF8091C00080648093C0002B30310598
:10E4A00014F43297B4F0C90164E670E00F942EFEC4
:10E4B0006AE070E00F942EFE605D7F4F6093C600AF
:10E4C0008091C00086FFFCCF8091C0008064809363
:10E4D000C000C9016AE070E00F942EFEC0968093E0
:10E4E000C6008091C00086FFFCCF8091C000806490
:10E4F0008093C00008951F93182F8EE692EE60E07F
:10E500000F94C2F11093C6008091C00086FFFCCF2B
:10E510008091C00080648093C0000F94DCF11F9153
:10E5200008952F923F924F925F926F927F928F92B7
:10E530009F92AF92BF92CF92DF92EF92FF920F9392
:10E540001F93DF93CF93CDB7DEB762970FB6F894E2
:10E55000DEBF0FBECDBF382E622ECA01DB015C01CB
:10E560006D01772420E2222E2E010894411C511CBB
:10E570008BC081E0A81680E0B80681E0C80680E084
:10E58000D80628F0C601AA27BB270F940DF2BB2797
:10E59000AD2D9C2D8B2D0F940DF28A2D0F940DF225
:10E5A0002092C6008091C00086FFFCCF8091C00001
:10E5B00080648093C0009DE29093C6008091C0006B
:10E5C00086FFFCCF8091C00080648093C0002092C1
:10E5D000C6008091C00086FFFCCF8091C00080649F
:10E5E0008093C00019828601750188249924A1E0D6
:10E5F0003A1651F03A1620F0B2E03B1661F409C029
:10E600000BBFF701779007C0C7010F9477FE782EF4
:10E6100002C0F7017080872D0F940DF22092C60082
:10E620008091C00086FFFCCF8091C0008064809301
:10E63000C000872D8052F401EF70F0708F3520F408
:10E64000E40DF51D708204C0E40DF51D8EE280839B
:10E650000894E11CF11C011D111D0894811C911CE2
:10E6600090E18916910409F0C2CF80E190E0A0E02A
:10E67000B0E0A80EB91ECA1EDB1E198AC2010F9493
:10E68000FAF10F94DCF16A94662009F072CF629679
:10E690000FB6F894DEBF0FBECDBFCF91DF911F91B3
:10E6A0000F91FF90EF90DF90CF90BF90AF909F9031
:10E6B0008F907F906F905F904F903F902F90089534
:10E6C0002F923F924F925F926F927F928F929F9282
:10E6D000AF92BF92CF92DF92EF92FF920F931F9370
:10E6E000DF93CF93CDB7DEB7CD53D1400FB6F894BB
:10E6F000DEBF0FBECDBF01E20EBF0FEF0DBF94B75F
:10E70000F894A89514BE80916000886180936000A1
:10E7100010926000789493FF05C0E0910002F091A0
:10E7200001021995279A2F9A8091C00082608093E8
:10E73000C00080E18093C40088E18093C1000000A4
:10E74000EE24FF24870144E0A42EB12CCC24DD2448
:10E7500024C0C5010197F1F70894E11CF11C011DCB
:10E76000111D21E2E2162EE4F20620E0020720E06D
:10E77000120718F031E0C32ED12CC801B70127ECE5
:10E780003BE140E050E00F9441FE611571058105C9
:10E79000910519F485B1805885B98091C00087FD35
:10E7A00003C0C114D104A9F2A6014F5F5F4FC25E3E
:10E7B000DE4F59834883CE51D140C25EDE4F8881FF
:10E7C0009981CE51D140019711F00D9410FEC05D9A
:10E7D000DE4F19821882C053D14060E0C15DDE4F28
:10E7E0001882CF52D14088249924C35DDE4F19820C
:10E7F0001882CD52D140C05EDE4F188219821A8233
:10E800001B82C052D140CE5CDE4F188219821A8220
:10E810001B82C253D140EE24FF2487010BBFF701B6
:10E8200007911691C45CDE4F19830883CC53D14005
:10E830000D940BFEC25EDE4F28813981CE51D1404E
:10E840002130310509F52091C600C25EDE4F1982E4
:10E850001882CE51D14022C02F5F3F4F4F4F5F4FA4
:10E86000213082E138078AE7480780E0580780F0C6
:10E87000C45CDE4FE881F981CC53D140EF5FFF4F9C
:10E8800019F0EE27FF27099420E030E040E050E047
:10E890008091C00087FFE0CF2091C600C35DDE4FAE
:10E8A00048815981CD52D1404F5F5F4FC35DDE4FEC
:10E8B00059834883CD52D140213209F063C64A3092
:10E8C000510508F05FC60894811C911C53E0851621
:10E8D000910409F059C600E010E018C081E280936D
:10E8E000C6008091C00086FFFCCF8091C00080648C
:10E8F0008093C0002F5F3F4F2931310579F70F9486
:10E90000DCF10F5F1F4F0530110519F020E030E0FA
:10E91000E5CF10920A0210920B0210920C02109294
:10E920000D02109206021092070210920802109235
:10E930000902109202021092030210920402109235
:10E9400005028FEE90EE60E00F94F5F180E191EE1C
:10E9500060E00F94C2F18091C00087FFFCCF9091DE
:10E96000C600903608F09F759032B8F09093C600BC
:10E970008091C00086FFFCCF8091C00080648093AE
:10E98000C000A0E2A093C6008091C00086FFFCCF2B
:10E990008091C00080648093C000983409F4D7C18E
:10E9A0009934B8F4923409F459C1933458F490333B
:10E9B00019F1903308F4E3C59F33A1F1903409F0C5
:10E9C000DEC5BDC0953409F470C1963409F0D7C5D1
:10E9D00098C1923509F42BC2933538F49C3409F46C
:10E9E000F5C1913509F0CBC518C2963509F445C279
:10E9F000993509F0C4C567C483E792EE62E00F94CD
:10EA0000F5F110920602109207021092080210927D
:10EA1000090210920A0210920B0210920C0210923C
:10EA20000D0213C18FE792EE62E00F94F5F18FEEC5
:10EA300090EE60E00F94F5F181E291EE60E00F94CA
:10EA4000C2F187EB91EE60E00F94F5F180E391EE77
:10EA500060E00F94C2F184EE90EE60E00F94F5F167
:10EA60008FE391EE60E00F94C2F186E090E061E008
:10EA700070E00F9434F20F94DCF18DE591EE60E0DC
:10EA80000F94C2F189EC91EE60E00F94F5F18EE401
:10EA900091EE60E00F94C2F183EC91EE60E00F9490
:10EAA000F5F18CE691EE60E00F94C2F18EE10F94E7
:10EAB0000DF288E90F940DF281E00F940DF20F949E
:10EAC000DCF18BE791EE60E00F94C2F119E0E0E039
:10EAD000F0E010935700E4918E2F0F940DF20F94F5
:10EAE000DCF18AE891EE60E00F94C2F1E3E0F0E03F
:10EAF00010935700E4918E2F0F940DF20F94DCF1D8
:10EB000089E991EE60E00F94C2F1E2E0F0E0109349
:10EB10005700E4918E2F0F940DF20F94DCF188EAE8
:10EB200091EE60E00F94C2F1E1E0F0E01093570045
:10EB30001491812F0F940DF20F94DCF107CF8BE825
:10EB400092EE62E00F94F5F18BE492EE60E00F94A8
:10EB5000F5F10F94DCF100E010E019C0C8016F2D51
:10EB60000F947FFEFF2031F489E492EE60E00F9471
:10EB7000C2F10BC0F092C6008091C00086FFFCCFAE
:10EB80008091C00080648093C0000F5F1F4FC80158
:10EB900081519F41A0E0B0E0ABBFFC01F790BAE229
:10EBA000FB1621F0E2E000301E07C1F60F94DCF105
:10EBB0000F94DCF187E592EE60E00F94F5F10F948D
:10EBC000DCF1CC24DD2400E010E01EC0C8010F946D
:10EBD00077FEF82E882331F489E492EE60E00F94FA
:10EBE000C2F10BC08093C6008091C00086FFFCCFAD
:10EBF0008091C00080648093C000FE1419F00894D6
:10EC0000C11CD11C0F5F1F4FC80181519F41A0E063
:10EC1000B0E0ABBFFC01E790FAE2EF1621F022E092
:10EC20000030120799F60F94DCF10F94DCF182E6C4
:10EC300092EE60E00F94C2F1C60161E070E00F94C3
:10EC400034F20F94DCF10F94DCF110920202109276
:10EC50000302109204021092050278CE89E992EE26
:10EC600062E00F94F5F1279A2F9A16C02F9880E052
:10EC700090E0E0EDF7E03197F1F7019684369105E9
:10EC8000C1F72F9A80E090E0E0EDF7E03197F1F7DF
:10EC9000019684369105C1F78091C00087FFE6CFC9
:10ECA0008091C00087FFFCCF64C485EA92EE62E0E9
:10ECB0000F94F5F140910202509103026091040219
:10ECC0007091050281E020E10F9491F2809102029F
:10ECD00090910302A0910402B091050280509F4FD1
:10ECE000AF4FBF4F8093020290930302A0930402A0
:10ECF000B093050280509041A040B04008F426CE69
:10ED0000A4CF83EB92EE62E00F94F5F140910602FE
:10ED100050910702609108027091090280E020E1A1
:10ED20000F9491F28091060290910702A09108023F
:10ED3000B091090280509F4FAF4FBF4F80930602A2
:10ED400090930702A0930802B0930902FFCD80ECD4
:10ED500092EE62E00F94F5F183E792EE60E00F949B
:10ED6000F5F18FE792EE60E00F94F5F18BE892EE0B
:10ED700060E00F94F5F189E992EE60E00F94F5F10F
:10ED800085EA92EE60E00F94F5F183EB92EE60E09D
:10ED90000F94F5F180EC92EE60E00F94F5F187ECC2
:10EDA00092EE60E00F94F5F188ED92EE60E00F9442
:10EDB000F5F18FED92EE60E00F94F5F18AEE92EEB0
:10EDC00060E00F94F5F183E093EEBDCD87EC92EE19
:10EDD00062E00F94F5F181E40F947BF282E40F94EA
:10EDE0007BF283E40F947BF284E40F947BF285E45E
:10EDF0000F947BF286E40F947BF287E40F947BF20E
:10EE000088E40F947BF28AE40F947BF28BE40F94F6
:10EE10007BF28CE40F947BF299CD88ED92EE62E068
:10EE20000F94F5F1772473948824992409C48FED05
:10EE300092EE62E00F94F5F140910A0250910B02BC
:10EE400060910C0270910D0282E020E10F9491F22A
:10EE500080910A0290910B02A0910C02B0910D02D8
:10EE600080509F4FAF4FBF4F80930A0290930B0289
:10EE7000A0930C02B0930D0269CD8AEE92EE62E08F
:10EE80000F94F5F184EE90EE60E00F94F5F18FECC5
:10EE900091EE60E00F94F5F1662477244301CC5D98
:10EEA000DE4F19821882C452D140D401C301B695F5
:10EEB000A79597958795CA5DDE4F88839983AA8326
:10EEC000BB83C652D140CC5DDE4FA881B981C4520C
:10EED000D1401196CC5DDE4FB983A883C452D14096
:10EEE000CD0162E070E00F9434F2B0E2B093C6005E
:10EEF0008091C00086FFFCCF8091C0008064809329
:10EF0000C000EDE2E093C6008091C00086FFFCCF18
:10EF10008091C00080648093C000F0E2F093C6004E
:10EF20008091C00086FFFCCF8091C00080648093F8
:10EF3000C000CA5DDE4FE880F9800A811B81C6529D
:10EF4000D140BB27A12F902F8F2D0F940DF2CA5DBA
:10EF5000DE4F8881C652D1400F940DF2B0E2FB2EF5
:10EF6000F092C6008091C00086FFFCCF8091C00067
:10EF700080648093C0000DE30093C6008091C000C0
:10EF800086FFFCCF8091C00080648093C00010E2B7
:10EF90001093C6008091C00086FFFCCF8091C00016
:10EFA00080648093C0008BBEF3012791C65DDE4F65
:10EFB0002883CA52D140A22EBB24CC24DD2408943D
:10EFC000611C711C811C911C8BBEF3018791282E42
:10EFD0003324442455240894611C711C811C911C09
:10EFE0008BBEF3013791C55DDE4F3883CB52D140E4
:10EFF0000894611C711C811C911C8BBEF30147910C
:10F00000C45DDE4F4883CC52D140ADEFEA2EAFEF66
:10F01000FA2EAFEF0A2FAFEF1A2F6E0C7F1C801E57
:10F02000911E142D032DF22CEE24EA0CFB1C0C1D5A
:10F030001D1D0F940DF220E22093C6008091C000A8
:10F0400086FFFCCF8091C00080648093C000C65DC5
:10F05000DE4F8881CA52D1400F940DF230E23093D6
:10F06000C6008091C00086FFFCCF8091C000806404
:10F070008093C000C45DDE4F8881CC52D1400F9494
:10F080000DF240E24093C6008091C00086FFFCCFA5
:10F090008091C00080648093C000C55DDE4F888190
:10F0A000CB52D1400F940DF250E25093C6008091A4
:10F0B000C00086FFFCCF8091C00080648093C000B8
:10F0C0008FEFE8168FEFF80680E0080780E018075A
:10F0D00031F484E092EE60E00F94C2F1DFC0D80119
:10F0E000C7018070907CA070B0708050904CA040A0
:10F0F000B040D1F52FEF3FE340E050E0E222F322B1
:10F1000004231523CA5DDE4FA880B980CA80DB8046
:10F11000C652D140AE0CBF1CC01ED11EAA0CBB1CD7
:10F12000CC1CDD1C8EE092EE60E00F94C2F1BB2798
:10F13000A12F902F8F2D0F940DF28E2D0F940DF285
:10F1400030E23093C6008091C00086FFFCCF8091F2
:10F15000C00080648093C0004EE34093C60080915D
:10F16000C00086FFFCCF87C08EE09EEFA0E0B0E03D
:10F17000E822F9220A231B239CE0E91694E9F90608
:10F1800090E0090790E0190709F088C0C45DDE4FE0
:10F19000A881CC52D140EA2EFF2400E010E0102FCD
:10F1A0000F2DFE2CEE24C55DDE4FB881CB52D14031
:10F1B000EB0EF11C011D111DD601C501817090706F
:10F1C000A070B070DC0199278827E80EF91E0A1F8D
:10F1D0001B1F20EF30E040E050E0A222B322C42207
:10F1E000D52241E1AA0CBB1CCC1CDD1C4A95D1F7F1
:10F1F000EA0CFB1C0C1D1D1D81E090E0A0E0B0E0BE
:10F20000282239224A225B2235E1220C331C441C7D
:10F21000551C3A95D1F7E20CF31C041D151D57013E
:10F220006801AA0CBB1CCC1CDD1C85E192EE60E0E1
:10F230000F94C2F1C801AA27BB270F940DF2BB2778
:10F24000A12F902F8F2D0F940DF28E2D0F940DF274
:10F2500090E29093C6008091C00086FFFCCF809121
:10F26000C00080648093C000AEE3A093C60080918C
:10F27000C00086FFFCCF8091C00080648093C000F6
:10F28000C601AA27BB270F940DF2BB27AD2D9C2DDD
:10F290008B2D0F940DF28A2D0F940DF20F94DCF14B
:10F2A000CC5DDE4FE881F981C452D140F99709F471
:10F2B0004DCBF4E0EF2EF12C012D112D6E0C7F1CA7
:10F2C000801E911EF2CD83E093EE62E00F94F5F183
:10F2D0008AE192EE60E00F94C2F18091C00087FF56
:10F2E000FCCF1091C6001F751093C6008091C0001E
:10F2F00086FFFCCF8091C00080648093C0000F9493
:10F30000DCF1812F81548A3108F036C1163409F4BA
:10F3100095C0173490F4133409F44EC0143430F40B
:10F320001134F1F0123409F01DC130C0143409F465
:10F3300059C0153409F016C16BC01A3409F4C4C0A1
:10F340001B3438F4173409F48FC0183409F00AC19B
:10F35000A1C01B3409F4D2C01C3409F003C1E8C0B9
:10F360008FEF81B90DC082B1809582B980E090E0C5
:10F37000E0EDF7E03197F1F70196883C9105C1F790
:10F380008091C00087FFEFCF12B8EFC08FEF84B934
:10F390000DC085B1809585B980E090E0E0EDF7E0A3
:10F3A0003197F1F70196883C9105C1F78091C00033
:10F3B00087FFEFCF15B8D9C08FEF87B90DC088B1DF
:10F3C000809588B980E090E0E0EDF7E03197F1F7C3
:10F3D0000196883C9105C1F78091C00087FFEFCF6F
:10F3E00018B8C3C08FEF8AB90DC08BB180958BB9A7
:10F3F00080E090E0E0EDF7E03197F1F70196883C8E
:10F400009105C1F78091C00087FFEFCF1BB8ADC059
:10F410008FEF8DB90DC08EB180958EB980E090E0F0
:10F42000E0EDF7E03197F1F70196883C9105C1F7DF
:10F430008091C00087FFEFCF1EB897C08FEF80BBD1
:10F440000DC081B3809581BB80E090E0E0EDF7E0F6
:10F450003197F1F70196883C9105C1F78091C00082
:10F4600087FFEFCF11BA81C08FEF83BB0DC084B38C
:10F47000809584BB80E090E0E0EDF7E03197F1F714
:10F480000196883C9105C1F78091C00087FFEFCFBE
:10F4900014BA6BC08FEF809301010FC080910201FD
:10F4A00080958093020180E090E0E0EDF7E03197F5
:10F4B000F1F70196883C9105C1F78091C00087FF64
:10F4C000EDCF1092020151C08FEF809304010FC065
:10F4D0008091050180958093050180E090E0E0ED4A
:10F4E000F7E03197F1F70196883C9105C1F78091DB
:10F4F000C00087FFEDCF1092050137C08FEF8093DA
:10F5000007010FC08091080180958093080180E079
:10F5100090E0E0EDF7E03197F1F70196883C910536
:10F52000C1F78091C00087FFEDCF109208011DC088
:10F530008FEF80930A010FC080910B01809580931B
:10F540000B0180E090E0E0EDF7E03197F1F70196F4
:10F55000883C9105C1F78091C00087FFEDCF1092E4
:10F560000B0103C085E292EEEEC98091C00087FFD7
:10F57000FCCF8091C600EAC988E392EEE4C98CE131
:10F5800091EEE1C988249924933011F1943028F444
:10F59000913089F09230B8F408C0953061F195301F
:10F5A000F0F0963009F048C043C02B3109F042C951
:10F5B00091E06BE13FC96227C15DDE4F2883CF52E6
:10F5C000D14092E037C9B22FA0E0622793E032C960
:10F5D000822F90E0A82BB92B622794E02BC92E3004
:10F5E00009F039C3622795E0C05DDE4F19821882A9
:10F5F000C053D1401FC9E1E0F0E0EC0FFD1FC05D3A
:10F60000DE4F08811981C053D140E00FF11F2083E4
:10F610000F5F1F4FC05DDE4F19830883C053D14079
:10F6200062270A171B0709F005C9D80196E002C92D
:10F63000261709F010C303C0973009F0FBC87724E0
:10F640009981933109F412C19431C8F4963009F4C8
:10F65000D8C0973050F4923009F406C1933009F4C1
:10F660006DC0913009F059C253C0913109F477C08F
:10F67000923108F0BBC0903109F04FC2F5C098310B
:10F6800009F487C0993150F4953109F4EFC09531F0
:10F6900008F4C6C1963109F040C2C2C19A3109F4DA
:10F6A0006CC09A3108F491C09B3109F45BC09D3164
:10F6B00009F033C29D81903359F48F81882311F46E
:10F6C0009EE11CC0813011F091E018C098E916C08D
:10F6D000892F807591F0903539F4E0E0F0E089E011
:10F6E0008093570094910AC0983539F4E3E0F0E034
:10F6F00089E080935700949101C090E01A821B82A8
:10F700008D818C831D829E831F8227E030E009C299
:10F710001A8288E08B8381E48C8386E58D8382E581
:10F720008E8389E48F8383E5888780E589878FE5E9
:10F730008A8782E38B872BE030E0F3C18A818139AD
:10F7400041F0823941F0803911F48FE005C080E04A
:10F7500003C082E001C08AE01A828B8344C0772410
:10F76000739482C08D81882311F48EE12CC0813086
:10F7700011F081E028C088E926C01A82E1E0F0E0BB
:10F7800089E08093570084918B831C8224E030E0D1
:10F79000C8C18B81803589F48C81883039F4E2E0EE
:10F7A000F0E089E08093570084910DC0E0E0F0E044
:10F7B00089E080935700849106C0E3E0F0E089E09F
:10F7C0008093570084911A82DFCF8D81836C99E0FA
:10F7D000E1E0F0E0082E90935700E89507B600FCB2
:10F7E000FDCF1A821B8223E030E09BC180EC8A832C
:10F7F000CE5CDE4F188219821A821B82C253D1401E
:10F800008EC18A8190E0A0E0B0E0582F44273327D2
:10F8100022278B8190E0A0E0B0E0DC0199278827C7
:10F82000282B392B4A2B5B2B8D8190E0A0E0B0E098
:10F83000282B392B4A2B5B2B8C8190E0A0E0B0E089
:10F84000BA2FA92F982F8827282B392B4A2B5B2BCF
:10F85000220F331F441F551FC05EDE4F288339839C
:10F860004A835B83C052D1401A8259C13A81C95C34
:10F87000DE4F3883C753D140CA5CDE4F1882C6536F
:10F88000D1408B81C82EDD24CA5CDE4F488159816E
:10F89000C653D140C42AD52A933109F082C0CE5C28
:10F8A000DE4F88819981AA81BB81C253D1408050AB
:10F8B000904CA340B04030F583E0CE5CDE4FE88052
:10F8C000F9800A811B81C253D140F70100935B008C
:10F8D00080935700E89507B600FCFDCFCE5CDE4F65
:10F8E000088119812A813B81C253D14000501F4FAA
:10F8F0002F4F3F4FCE5CDE4F088319832A833B8313
:10F90000C253D140C05EDE4F488159816A817B81FC
:10F91000C052D140DE011B9631E08C9111962C91A2
:10F9200011971296C75CDE4F2883C953D140C85C3B
:10F93000DE4F1882C853D14090E0C85CDE4FE881AA
:10F94000F981C853D1408E2B9F2B0C01FA01609393
:10F950005B0030935700E89511244E5F5F4F6F4F67
:10F960007F4F0EEFE02E0FEFF02ECE0CDF1CC114F8
:10F97000D10499F685E0C05EDE4F088119812A81A5
:10F980003B81C052D140F80120935B008093570027
:10F99000E89507B600FCFDCF81E180935700E8951C
:10F9A00035C0C05EDE4F88819981AA81BB81C0527B
:10F9B000D140B695A795979587957C018601ABE0D8
:10F9C000AA2EB12CAC0EBD1E0BC0D5016D915D01F0
:10F9D000C7010F947FFE0894E11CF11C01501040F8
:10F9E0000115110591F7A60160E070E0440F551F65
:10F9F000661F771FC05EDE4FE880F9800A811B8199
:10FA0000C052D1404E0D5F1D601F711F1A82C05E33
:10FA1000DE4F488359836A837B83C052D1407FC0C5
:10FA2000FA80C55CDE4FF882CB53D140C65CDE4F16
:10FA30001882CA53D1408B81C82EDD24C65CDE4FAC
:10FA400008811981CA53D140C02AD12A1A828981DA
:10FA5000BE016D5F7F4F843121F59601C05EDE4FA0
:10FA6000E880F9800A811B81C052D1400BBFF701A9
:10FA700087919691DB018C9311969C936E5F7F4FDB
:10FA8000D801C7010296A11DB11DC05EDE4F88835B
:10FA90009983AA83BB83C052D14022503040F1F6F3
:10FAA00036C0C05EDE4F288139814A815B81C052F9
:10FAB000D1400894C108D108760100E010E0089414
:10FAC000C11CD11C0894E11CF11C011D111DE20E8A
:10FAD000F31E041F151F21BDBB27A52F942F832FB5
:10FAE00082BD2F5F3F4F4F4F5F4FF89A80B5DB01CC
:10FAF0008D93BD012E153F054007510761F7C05E8C
:10FB0000DE4F288339834A835B83C052D1409601FC
:10FB10002D5F3F4FFB01108204C080EC8A8322E0FE
:10FB200030E08BE18093C6008091C00086FFFCCF5F
:10FB30008091C00080648093C000C15DDE4FF88179
:10FB4000CF52D140F093C6008091C00086FFFCCF19
:10FB50008091C00080648093C000432F3093C60022
:10FB60008091C00086FFFCCF8091C00080648093AC
:10FB7000C000922F2093C6008091C00086FFFCCF6A
:10FB80008091C00080648093C0008EE08093C600A6
:10FB90008091C00086FFFCCF8091C000806480937C
:10FBA000C00065E1C15DDE4FE880CF52D1406E25D7
:10FBB00069276427FE01319610C090819093C6009A
:10FBC0008091C00086FFFCCF31968091C000806498
:10FBD0008093C0006927215030402115310569F715
:10FBE0006093C6008091C00086FFFCCF8091C0006A
:10FBF00080648093C00085B1805885B9772081F4F6
:10FC0000C15DDE4F0881CF52D1400F5FC15DDE4F35
:10FC10000883CF52D14090E0A0E0B0E00D941AF4F8
:10FC200027982F9880E090E020ED37E0F901319798
:10FC3000F1F7019684369105C9F700008091C00064
:10FC40008D7F8093C00081E180935700E895EE2777
:10FC5000FF270994FFCF90E00D941AF497FB092E2B
:10FC600007260AD077FD04D02ED006D000201AF443
:10FC7000709561957F4F0895F6F7909581959F4F08
:10FC80000895A1E21A2EAA1BBB1BFD010DC0AA1FDD
:10FC9000BB1FEE1FFF1FA217B307E407F50720F0F5
:10FCA000A21BB30BE40BF50B661F771F881F991F70
:10FCB0001A9469F760957095809590959B01AC01B9
:10FCC000BD01CF010895AA1BBB1B51E107C0AA1FAC
:10FCD000BB1FA617B70710F0A61BB70B881F991FED
:10FCE0005A95A9F780959095BC01CD010895F99991
:10FCF000FECF92BD81BDF89A992780B50895262F31
:10FD0000F999FECF1FBA92BD81BD20BD0FB6F89400
:0EFD1000FA9AF99A0FBE01960895F894FFCF63
:040000033000E000E9
:00000001FF
